:20000000483F0020F19A000001CA011001CA011001CA011001CA011001CA011001CA011086
:1C00200001CA011001CA011001CA011001CA011001CA011001CA01103FCA011082
:20003C0000B5ADF11C0D8DF814002B480068002839D09DF8140090B92948007800900020F8
:20005C0001900020029000200390002004902348006816A30521002209F0C4FD19E01E49EC
:20007C001D4809680068097908300AF097FF1C48007800900020019000200290002003905A
:20009C0000200490154800680DA30521002209F0A9FD114800680AF0FFFF0F49002008609B
:2000BC000F490020087007B000BDC0465273702073656E742072657472793A20256400C0B2
:2000DC00527370207265747279206661696C65643A20256400C046C0640C0020600C00202F
:0400FC00680C00206C
:200100003C000000000000000000000034010000000000000000000001000000000000006D
:1C01200000000000000000000000000001000000000000000800000000000000BA
:20013C00340000000000000000000000680100000000000000000000010000000000000005
:14015C00010000000000000000000000080000000000000086
:2001700030000000000000000000000098010000040000000000000001000000FFFFFFFFA5
:10019000FF00000001000000080000000000000057
:2001A0002C0000000000000000000000C4010000040000000000000001000000FFFFFFFF4D
:0C01C000FFFFFFFF08000000000000002F
:2001CC0034050000E401000099A1011095A70110A5C2011009B2011045B80110000000000B
:0801EC00000000002F000000DC
:2001F400280000000000000000000000140200000000000000000000FFFFFFFF00000000B1
:080214000800000000000000DA
:20021C00300500003002000069C201106DC101101FC2011095BA011000000000000000008E
:04023C002D00000091
:20024000300500005402000075C20110A9B601109DBF011049B601100000000000000000DE
:040260002E0000006C
:200264002400000000000000000000008002000000000000000000000000000008000000CC
:040284000000000076
:20028800240000000000000000000000A40200000000000000000000000000000800000084
:0402A8000000000052
:2002AC00240000000000000000000000C8020000000000000100000000000000080000003B
:0402CC00000000002E
:2002D000000000008C0C002004000000000000000000000020000000700100003000000091
:2002F0001C020000940C00200400000000000000000000000C0000003004000018000000B4
:20031000400200009C0C002004000000000000000000000024000000480400001800000037
:2003300000000000A40C002004000000000000000000000010000000A00100002C000000FC
:20035000CC010000AC0C00200400000000000000000000002000000064020000240000003A
:20037000FFFFFFFFB40C0020040000000000000000000000280000008802000024000000B7
:20039000FFFFFFFFBC0C0020040000000000000000000000580000003C010000340000009C
:2003B000FFFFFFFFC40C0020040000000000000000000000100000006004000018000000B1
:2003D000FFFFFFFFCC0C00200400000000000000000000001C000000AC0200002400000027
:2003F000FFFFFFFFD40C002004000000000000000000000038000000F40100002800000098
:20041000FFFFFFFFDC0C002004000000000000000000000054000000000100003C00000033
:1804300018000000000000000000000040040000080000000000000050
:1804480018000000000000000000000058040000080000000000000020
:18046000180000000000000000000000700400000800000000000000F0
:080478000100000058CD000056
:040480000068704759
:040484000100000073
:0404880000000E0062
:04048C0000000F005D
:040490003200000036
:040494000100000063
:04049800E80A00204E
:04049C00000200005A
:0404A0000000000058
:0404A40001CA011078
:0404A8000000000050
:0404AC00000000004C
:0404B0000800000040
:0404B4000000230021
:0404B80058090020BF
:0404BC00010000003B
:0404C000000B00200D
:0404C400080000002C
:0404C8000000000030
:0404CC00000000002C
:0404D0000000000028
:0404D4000000000024
:0404D8000000000020
:0404DC00010000001B
:0404E000C00900202F
:0404E400060000000E
:0404E800010000000F
:0404EC00C008002024
:0404F0000000000008
:0404F4000000000004
:0404F80000020000FE
:0404FC0000000000FC
:02050000704742
:020502002900CE
:020504000100F4
:020506002500CE
:020508002D00C4
:02050A002E00C1
:02050C002F00BE
:02050E000100EA
:0105100001E9
:0805140003000000C8CC000048
:08051C000000000000000000D7
:0405240000000100D2
:0405280000000300CC
:04052C0087C401106F
:04053000380500008A
:040534003805000086
:0405380000000000BF
:04053C00900000002B
:040540009000000027
:0405440000000000B3
:04054800000B002084
:04054C00F5C10000F5
:040550002000000087
:0405540034CC0000A3
:0405580074CB000060
:04055C000DC30110BA
:0405600023860000EE
:040564009F93000061
:0405680099C801101D
:04056C009BC8011017
:040570000000000087
:0405740037CD00007F
:04057800C0CA0000F5
:04057C00D8CA0000D9
:04058000A8CA000005
:0205840008006D
:0205860009006A
:02058800010070
:02058A0000006F
:01058C00016D
:040590000000000067
:040594000000000063
:04059800000000005F
:04059C00000000005B
:0405A000C9C50000C9
:0405A400FDA40000B2
:0405A80041B200005C
:0405AC00A9A70000FB
:0405B0000FA8000090
:0405B400F1A90000A9
:0405B8000D790000B9
:0405BC0023C4000054
:0405C000758A000038
:0405C40011C8011049
:0405C80021C8011035
:0405CC000800000023
:0405D0002400000003
:0405D400180000000B
:0405D80028000000F7
:0405DC0020000000FB
:0405E0003C000000DB
:0405E4000C00000007
:0405E80034000000DB
:2005EC000EB500928DF80610ADF8040000208DF8070029E29DF80600102805D10099AD4868
:20060C00102206F095F85FE218208DF807005BE29DF80600102805D10099A948102206F07C
:20062C0087F851E218208DF807004DE29DF80600042804D10098AC490068086044E21820B2
:20064C008DF8070040E29DF8060001283ED1A7480078012836D0A64800788DF808000098EC
:20066C00A349007808709DF8080080B1A048007868B9AD480078022804D0AB480078052840
:20068C0040F02282A94800780BF0E2F81CE29DF80800002840F0188295480078002800F042
:2006AC001382A1480078012808D09F480078042804D09D480078052840F0068201200AF07B
:2006CC0053FF01E212208DF80700FDE118208DF80700F9E19DF80600012846D18448007880
:2006EC0001283ED0814800788DF8080000987F49007808709DF80800A0B17C48007888B92E
:20070C0089480078032808D087480078072804D085480078052840F0D781844800780BF0FE
:20072C0097F8D1E19DF80800002840F0CD816F480078002800F0C8817B48007801280CD059
:20074C0079480078042808D077480078062804D075480078052840F0B78101200AF004FF2F
:20076C00B2E112208DF80700AEE118208DF80700AAE19DF80600022804D10098AF4900888C
:20078C000880A1E118208DF807009DE19DF806001F2819DCAA4800211F2206F0F3FD009957
:2007AC009DF80620A64805F0C3FF9DF80600A54908705E48A349A24B00780A78012107F03A
:2007CC0061FA8DF807007FE118208DF807007BE19DF806001F2819DCBD4800211F2206F072
:2007EC00D1FD00999DF80620B94805F0A1FF9DF80600B84908704D48B649B54B00780A7893
:20080C00002107F03FFA8DF807005DE118208DF8070059E19DF80600012808D10098007806
:20082C00042804DC0098AC49007808704CE118208DF8070048E19DF80600012808D10098D4
:20084C000078032804DC0098A449007808703BE118208DF8070037E19DF80600062806D1FC
:20086C0000989F4902680A60808888802CE118208DF8070028E19DF80600012808D10098F9
:20088C000078072804DC00989649007808701BE118208DF8070017E19DF8060001280BD106
:2008AC0000980078032807DC00988F49007808700AE1C0463026002018208DF8070003E19F
:2008CC00402600209DF80600012808D100980078062804DA0098854900780870F4E018206B
:2008EC008DF80700F0E0C04628260020CF0A0020CE0A002000980088ADF808009DF80600C3
:20090C0002280DD1BDF80800062809DBBDF80800B0F5486F04DCBDF8080075490880D3E045
:20092C0018208DF80700CFE0242600201C26002000980088ADF808009DF8060002280DD1FC
:20094C00BDF80800062809DBBDF80800B0F5486F04DCBDF8080067490880B5E018208DF87C
:20096C000700B1E000980088ADF808009DF80600022809D1BDF80800B0F5FA7F04DABDF8F9
:20098C0008005D4908809FE018208DF807009BE000980088ADF808009DF8060002280DD1E7
:2009AC00BDF808000A2809DBBDF80800B0F5486F04DCBDF808005149088085E018208DF85E
:2009CC00070081E0009800788DF808009DF80600012819D19DF80800012815D148480AF022
:2009EC00B5FF68B94149002005F00EFA8DF807009DF80700002867D142480BF077FB63E0AD
:200A0C0016208DF807005FE018208DF807005BE0BDF8040028280CDA9DF80600022808D13D
:200A2C000099BDF80400098808F02AFE8DF807004AE002208DF8070046E0C046D00A00201D
:200A4C00700A0020D20A0020BDF80400A0F201301A28DDD801A151F82000874601060000A2
:200A6C001D060000390600001D0A0000530600007F07000099070000DD0700002108000055
:200A8C00430800006508000083080000A50800001D0A00001D0A0000D10800000109000029
:200AAC003D090000710900009D0900001D0A00001D0A00001D0A00001D0A0000D10900004E
:200ACC001D0A0000E10600009DF807000EBDC0468F0A0020D30A00202C2600202D260020F4
:200AEC00FA0C00202E2600202F260020540C0020560C0020580C00205A0C00205C0C002047
:200B0C00D8240020B424002000B5ADF11C0D009000208DF8040012E2009802900298407890
:200B2C008DF80C009DF80C00E8B99E4A0220102108F0E0FB9C4A0320102108F0DBFB029826
:200B4C009A49C01C02680A608088888098490120087098489849994B00780A78012107F0B4
:200B6C0091F88DF80C009DF80C0010B190490820087001208DF8040010E200980290029814
:200B8C004078002828D10298C07850B1A6498948A64B0A780078002107F074F8029948701B
:200BAC001AE083480078022816D081480078072812D07F480078062803D1A44800780128BC
:200BCC000AD17B480078032806D0A1480AF0BEFE10B901200AF0C8FC02984078002800F041
:200BEC00DD8173490820087001208DF80400D5E1009802900298407800283CD1009880788E
:200C0C00032812D16A480078062803D168490720087033E0A848007818B1654902200870B2
:200C2C002CE063490320087028E0AD48008858B1A148007810B98548007880B1A8480188AE
:200C4C00834808F0ADFD0AE09B480078012803D199490020087002E07C4900200870544884
:200C6C000078072803D152490620087006E050490420087002E04E490820087001208DF8DA
:200C8C0004008BE1009802900298407800283CD10298B549001D02680A60808888800298F4
:200CAC00B249408908804249062008700298B049C08908800298AF49008A08800298AE491A
:200CCC00408A08800298AD49C0780870AC480078012803D0AA48007802280CD11F2008F066
:200CEC00ABFCADF80C00BDF80C004FF47A714143B44808F055FD0298029A0299C0785289F3
:200D0C000423091D07F088FC0DE002984078312806D169490020087025490420087002E05A
:200D2C0023490820087001208DF8040036E1009802900298808809F02DFC8B4800210622D0
:200D4C0006F020FB8A49002008808A490020088089490020088002989B4980790870994836
:200D6C000BF0C4F999480BF0C1F901208DF804007E494FF6FF7008803448007818B10C495A
:200D8C00032008700AE102988079082803D108490520087002E006490420087001200AF054
:200DAC00E3FBFBE0302600204026002088260020242600201C260020D20A0020700A002042
:200DCC000098029081480BF091F902984078002840F0E48002986649C08808800298654920
:200DEC0000890880029864494089088075480AF0ADFD002840F0D28075480068002800F0F6
:200E0C00CD8073485B4900685B4A036809885848128800889847C1E0009802900298808803
:200E2C0005210AF0A1FAB9E0D30A00208F0A00200098029002988088ADF80C00504800780F
:200E4C00052807D100208DF8160074E0CF0A00209024002001208DF816005A480BF046F90D
:200E6C0047480078012803D045480078042839D1584802990088C988884202DD5548008846
:200E8C0001E00298C088ADF80E005348029900880989884202DD5048008801E002980089B3
:200EAC00ADF810004D48029900884989884205DD4A48008804E0C046CE0A002002984089DC
:200ECC00ADF812004648029900888989884202DD4348008801E002988089ADF814002AE089
:200EEC00D00A002026480078032803D024480078022810D137480088ADF80E003648008859
:200F0C00ADF8100035480088ADF8120034480088ADF814000FE00298C088ADF80E00029879
:200F2C000089ADF8100002984089ADF8120002988089ADF8140003A80AF0A6FD2EE0009803
:200F4C00807805281EDC05283FF49CAE00283FF4E3AD801E3FF411AE401E3FF449AE401E5B
:200F6C003FF446AE1AE0C046000D0020D40A0020D60A0020D80A0020DA0A0020DC0A002007
:200F8C00540C0020801F3FF4D2AE401E3FF418AF08383FF441AF801E3FF44AAF9DF8040055
:200FAC0001280CD10F48006848B10E480068006828B10C48006801680B480078884707B0F2
:200FCC0000BDC046B4240020DD0A0020D8240020E40A0020560C0020580C00205A0C00208D
:200FEC005C0C0020E00A00202426002010B5ADF1200D019100907C4803900198C00B28D381
:20100C000BF090FB0490B2480BF0F7F9029002988069059004980BF081FB0598800813D2FE
:20102C00029888B10299059A8869904388610298406848B1029802994468059A0298B1F9EB
:20104C001C10C0680023A047019820F480400190FCE101988008C0F0A680A5480BF0CDF9A6
:20106C000028029000F08F80029807F0A5FA0298806904900298002181610298406800285D
:20108C0030D00498002106AA40F0020082E8030014E000204FF0005106AA82E8030017E080
:2010AC0000204FF0804106AA82E8030010E000204FF0805106AA82E8030009E00298C07FE8
:2010CC0000F00700401EE4D0401EE9D0801EEED006AA0CCA0298029944680298B1F91C10B1
:2010EC00C068A0470BF01EFB0590B248B149B0F90000401C6FF31F3008807D4800681F307E
:20110C00017821F08001017079480AF027F805980BF004FB0298C068A649B0F99400B1F93E
:20112C00001088422FD1B348007860BB0298C06890F8960018B90298C068006840B90298CD
:20114C00C068002180F89610002006F09BF81AE0AF4800680068B0F1FF3F14D00298C0682D
:20116C0070300BF0C9F9029AAA49D26809681268B2FBF1F10BF0CEFA0298C06870300BF0A3
:20118C00BBF90BF0C3FA019820F00200019058480BF033F90028029000F05881019840F088
:2011AC000200019052E10198800FC0F09380AC480068002839D004200AF082FB002834D01E
:2011CC000AF040FFA7490860A548A6490068096888420BD2A2480168A2480068401A00997E
:2011EC00000BC8600CE0C0461C2500209C4801689C480068401A009900F1FF30000BC8607E
:20120C000099C86800F58D70C8600098C06840F6C411814205D30098C06840F2EE218142B5
:20122C0003D9009840F6C411C1608D490020086000988069A8B18C48007810F00F0F10D17F
:20124C000098408C40F6090181420AD1009880690490049C00986FF4807100224FF00073CB
:20126C00A04782480BF038F9814900220BF09DF98048007860B10220ADF8100004A80AF03A
:20128C00C3F8BDF81800039988837A490020087079490120087079490878401C0870784986
:2012AC000020087019200BF045F80098406948B1009840690490049C0098002100224FF050
:2012CC008063A047019820F000500190BEE0C046D42500206B48007860B10198000909D337
:2012EC00684900200870019820F008000190ADE0D825002001980009C0F08E805E49002086
:20130C0008706149012008700020FFF7F3F85F480AF052FE55480BF0DFF85D4900220BF0E2
:20132C0044F95C48007810B152480078E8B1594901200870584940F6090008804A484A4914
:20134C00007820F00F0040F0010008705349002008805349087820F00F0008705149002090
:20136C0008604D48504908604DE050480068002842D00AF067FE4E490860394801684C4820
:20138C000068401A4A49000B08604A4948480A680068801808604548464900680968B1EBEB
:2013AC00C01F09D244480BF0D7F84FF000510AF0BFFC28E0DE2500203E4900200860364913
:2013CC0040F60900088028482749007820F00F0040F00100087031490020088030490878FF
:2013EC0020F00F0008702F49002008602A482E49086008E00E0C00202F480BF0ADF84FF081
:20140C0000510AF095FC019820F0080001901DE0F823002050CD00000198800B16D32748D1
:20142C000AF0EBFF0290029860B10298406848B10298029944680298B1F91C10C0680022A9
:20144C002023A047019820F400500190019828B119480BF081F801990AF06AFC08B010BD02
:20146C00082400200C2400200126002094250020193D00001D240020FC2300200524002065
:20148C001E240020212400201F240020917100003DAC00001C240020F4250020F625002057
:2014AC0000260020F82500200010044018240020102400201424002060230020D025002089
:2014CC002DE9F04F09AFADF13C0D08900A92388809911E46ADF81800101C08BF002000F05A
:2014EC008481002700F101094FF0FF3A4FF0010BB8466CE1252940F063811078521C0A92B7
:20150C002D2818BFADF8068005D15846551CADF8060010780A9530281CBF4246434605D197
:20152C000A9908785A465B46491C0A912A28CDF80080554616D1306804930A99CDF808A0E3
:20154C00C01C4B1C20F00300001D306050F8044C0A93002C0878009418D5ADF806B0644219
:20156C00009413E044460AE0610001EBC40140180A99A0F1300408780094491C0A91302826
:20158C0001DB3A28F0DBCDF808A004932E282BD10A9908782A2801F101010A9111D1306862
:2015AC00CDF80880C01C20F00300001D306050F8045C002D48BF454608782B46491C0A91DE
:2015CC0011E0454643460AE0690001EBC50140180A99A0F1300508782B46491C0A913028EB
:2015EC0001DB3A28F0DB02930AB1224604926C2804D04C2818BFADF8048005D10A990878B3
:20160C00ADF804B0491C0A910BA9CDF80C800FAB07916428059300F08B80692800F0888066
:20162C00BDF818C0752872D078286ED06F286AD0702850D063283DD073281ED009980A9966
:20164C000128A1F101010A9115D96B490C68B5F1FF3F03D0A84288BF6D1C00D8099D02958A
:20166C0008A80AA932466B46A047C7190A99039801F1010974E040462AE030680A99C01CD6
:20168C0020F00300001D306050F8040CBCF1000F01F10109014608B955A0014607910AF098
:2016AC0039FD0390B5F1FF3F5BD0A842C4BF281C039056E03068C01C20F00300001D306098
:2016CC0010F8040C5D468DF82C000A990395584601F1010945E0082035680490E81C20F02B
:2016EC000300001D306050F8041C082210230FA806F05AFA401E0790402101700A9907985F
:20170C0001F1010929E0082302E0102300E00A230A99306801F10109C01C20F00300001D28
:20172C00306050F8041CAA42BCBF2A1C049210E00A99306801F10109C01C20F00300001D2F
:20174C00306050F8041CAA42BCBF2A1C04926FF009030FA806F028FA0790059D281A0390FA
:20176C00009C241ABDF8065000945DB906E008A8202109AA09F0B2FA009C7F1C641E009452
:20178C00F5D503980546401E039075B9BDF80600E8B10098401E009019D408A8202109AA03
:2017AC0009F09CFA00987F1CF4E70798411C0791017809AA08A809F091FA03987F1CE1E78E
:2017CC0008A809AA09F08AFA7F1C09F101094A460A9812F8011C401C00290A907FF48AAE5B
:2017EC00089808B14146017038460FB0BDE8F08F286E756C6C2900C064CD000000B5ADF1DB
:20180C003C0D8DF8140028E14FF4417006A900F02FFD9DF818008DF820009DF819008DF88D
:20182C0021009DF81A008DF8220000208DF8240000208DF823009DF81D008DF827009DF8A1
:20184C001C008DF826009DF81B008DF82500082108AA002001F0B0FB06A805F0C7FB034616
:20186C000020009000200190002002900020039000200490A04800680121002208F0BAF9A3
:20188C000020009000200190002002900020039000200490984800687BA30221002208F01F
:2018AC00A9F9EEE000200090002001900020029000200390002004908F48006875A30221B8
:2018CC00002208F097F9DCE000208DF82C008B480AF002FC08F09AFC8DF82C009DF82C00FA
:2018EC0006A9401E80B208F01FF938BB9DF82C000090002001900020029000200390002013
:20190C0004907D48006866A30221002208F072F90DF11A0005F06AFB0346002000900020BE
:20192C000190002002900020039000200490724800680321002208F05DF9A2E040F2153042
:20194C000CA900F095FC00200090002001900020029000200390002004906748006854A3BD
:20196C000221002208F046F90CA805F03FFB034600200090002001900020029000200390ED
:20198C00002004905C4800680321002208F032F977E0002000900020019000200290002088
:2019AC000390002004905448006844A30221002208F020F965E051480AF098FB1420FEF7FF
:2019CC0037FB0020009000200190002002900020039000200490484800683EA30221002231
:2019EC0008F008F9444800680321052209F0CCFA47E01420FEF71CFB00200090002001901C
:201A0C000020029000200390002004903A48006834A30221002208F0EDF8374800680321B3
:201A2C00052209F0B1FA2CE000200090002001900020029000200390002004902E4800686B
:201A4C002BA30221002208F0D5F81AE02A4800680221002209F098FA13E09DF81400401E04
:201A6C003FF4D2AE401E3FF41DAF801EA3D0401EBFD0401E3FF428AF401E8AD0401ED3D02B
:201A8C00E4E70FB000BDC046496E697469616C697A6564004164766572746973696E6700F7
:201AAC004E756D20436F6E6E733A20256400C046436F6E6E656374656400C046436F6E6EB9
:201ACC006563746564204164766572746973696E6700C046446973636F6E6E65637465647C
:201AEC0000C046C054696D6564204F757400C0464572726F7200C046600C00206C24002077
:201B0C0000B5ADF1240D9248924908F081FC93480AF0D4FA90490860002092490090042078
:201B2C0001908F4841F28832002306F0B5FC4FF00040002105F04EFD8B4908601F200621F8
:201B4C0007F09EFD01208DF81E000020ADF8140001208DF81F005020ADF816004FF448705F
:201B6C00ADF818000020ADF81A004FF47A70ADF81C00012140F205300DF11E02FEF730FD06
:201B8C0040F20630022105AAFEF72AFD774A4FF442701E21FEF724FD754A40F20730072188
:201BAC00FEF71EFD4FF4447001210DF11F02FEF717FD40F2113002210DF11602FEF710FD1A
:201BCC0040F21230022106AAFEF70AFD40F2133002210DF11A02FEF703FD4FF445700221F4
:201BEC0007AAFEF7FDFC634A0020152108F03AFEA020ADF81400BDF81410062007F040FD5B
:201C0C00BDF81410072007F03BFDBDF81410082007F036FDBDF81410092007F031FD002017
:201C2C00059001208DF8180001208DF8190000208DF81A0001208DF81B00042105AA4FF4EF
:201C4C00816007F03FFA4FF48060012106AA07F039FA40F2024001210DF1190207F032FA76
:201C6C0040F2034001210DF11A0207F02BFA40F2064001210DF11B0207F024FA4FF0FF3053
:201C8C000AF0C8FA4FF0FF300AF094FB09F0D8FE4FF0FF3006F002FE01208DF81C0002206E
:201CAC008DF81D0003208DF81E0004208DF81F0031490A6805A802600979017100200121B7
:201CCC0007AA02F037FF012001210DF11D0202F031FF022001210DF11E0202F02BFF0320FC
:201CEC0001210DF11F0202F025FF0420052105AA02F020FF214809F027FC214809F004F894
:201D0C00204808F097FD124800780AF05FF9104800780AF065F90AF06DF900200090002047
:201D2C0001900020029000200390002004900E48006803A30021002207F05CFF09B000BD7E
:201D4C00424C45205065726970686572616C00C06026002064260020682600207026002004
:201D6C006C24002035B50000600C0020AE0A0020EC0C0020180B002032CD0000140D0020BE
:201D8C00100D0020840C002000B5ADF11C0D8DF815108DF814009948006830B94FF00040DA
:201DAC00002105F017FC9549086000200090002001900020029000200390002004908F4857
:201DCC0000686DA30021002207F014FFC7E0002000900020019000200290002003900020A5
:201DEC0004908648006868A30021002207F002FF0020009000200190002002900020039001
:201E0C00002004907D48006862A30221002207F0F1FEAFE09DF81500012822D100200090A0
:201E2C00002001900020029000200390002004907248006854A30021002207F0DBFE002080
:201E4C000090002001900020029000200390002004906A48006854A30221002207F0CAFE07
:201E6C0088E000200090002001900020029000200390002004906148006843A3002100223A
:201E8C0007F0B8FE00200090002001900020029000200390002004905848006848A30221F9
:201EAC00002207F0A7FE65E000200090002001900020029000200390002004904F4800689A
:201ECC0031A30021002207F095FE002000900020019000200290002003900020049047484C
:201EEC0000683CA30221002207F084FE01208DF818009DF8180000283CD09DF8180000285D
:201F0C00FBD137E00020009000200190002002900020039000200490384800681AA3002192
:201F2C00002207F067FE00200090002001900020029000200390002004903048006829A3F1
:201F4C000221002207F056FE01208DF818009DF8180078B19DF818000028FBD10AE09DF831
:201F6C001400801E3FF456AF801E3FF430AF401E9AD0C7E707B000BD3E3E3E535441434BA1
:201F8C0020415353455254002A2A2A4552524F522A2A2A003E3E204F5554204F46204D45C2
:201FAC004D4F52592100C0463E3E20494E5445524E414C204657204552524F522100C04620
:201FCC003E3E20494E5445524E414C204552524F522100C03E3E204943414C4C2041424F7E
:201FEC00525421003E3E2044454641554C54205350494E4C4F434B2100C046C0600C002077
:20200C0000B5ADF1240D8DF81620ADF81410009089480AF0F2F90190884802909DF81610B8
:20202C000020490800D301208DF8170003208DF818000AF077FB0390BDF91400B0F1FF3F2B
:20204C0011D17F48006828B17D480068808BADF8140005E07B48B0F90000401CADF8140033
:20206C0002980021C177BDF9140006F053F804900498002840D072480499006888423BD159
:20208C009DF81600800805D36B48006801906A49002008609DF81720049901209040CA7F9F
:2020AC001043C8770AF02EFB07909DF8170008B1654800E0654809F0A7F903980AF02EFBD2
:2020CC009DF81600800810D3019870B10199C87F40F00400C87701A809F040F801465C480B
:2020EC0006F018F901980028F0D107980AF006FB83208DF818009AE00498002800F094802F
:20210C000498019988422AD152480AF0F5F909F08FFA9DF81600800803D347490020086093
:20212C0004E04548006844490068086003980AF0F5FA0199C87F40F00400C87701A809F0E3
:20214C000DF80146424806F0E5F8019818B19DF816008008EDD283208DF8180047E0019876
:20216C0000283DD0019904980968884232D139480AF0C2F909F05CFA0198006807909DF8F8
:20218C001600800805D30198002101600798019008E0079801990068086007980021016060
:2021AC0007980190019870B10199C87F40F00400C87701A808F0D2FF0146254806F0AAF817
:2021CC0001980028F0D103980AF0A8FA83208DF8180005E001980068019001980028C1D130
:2021EC009DF81800832802D003980AF097FA1A48007830B119480AF0AFF9022109F098FD14
:20220C0015E01748007890B9164809F0D5FE13480AF0A2F9022109F08BFD1348007830B923
:20222C00124809F0C9FE02E003980AF077FA9DF8180009B000BDC046CC2500201C250020F5
:20224C00D0250020DE2500200100020401000104D8250020482400201E240020602300207F
:20226C001F240020F90F0000FC230020294900000EB50091ADF8040000208DF80600A6E008
:20228C007848009900780870E8E000987649102204F04EFAE2E000987449102204F048FADD
:2022AC00DCE07348009900680860D7E0714900980A68026089888180D0E06F4800990078CB
:2022CC000870CBE06D48009900780870C6E06C48009900880880C1E06A4900980A786A496D
:2022EC0004F026FABAE0694900980A78684904F01FFAB3E06748009900780870AEE0664893
:20230C00009900780870A9E0644900980A68026089888180A2E062480099007808709DE042
:20232C00604800990078087098E05F4800990088088093E05D480099007808808EE05C48D5
:20234C0000990088088089E05A4800990088088084E059480099008808807FE057480099CF
:20236C00008808807AE0564900980A6802608988818073E053480099008808806EE052484B
:20238C0000990088088069E0504800990088088064E04F480099007808705FE04D4800992D
:2023AC00007808705AE04C4800990078087055E0BDF80400282806DABDF8040007F03CF9C7
:2023CC00009908804AE002208DF8060046E0BDF80400A0F540701D28EAD802A151F82000C2
:2023EC008746C0468D22000097220000A3220000AF220000B9220000C7220000DB2200003F
:20240C00E5220000F3220000012300000B23000015230000232300002D230000372300001A
:20242C00BD230000412300004B230000552300005F2300006923000073230000812300001E
:20244C008B23000095230000BD230000A9230000D12200009F230000B32300009DF8060038
:20246C000EBDC0462526002030260020402600202826002088260020CE0A0020CF0A0020EB
:20248C00D00A0020D20A0020700A0020D30A00208F0A00202C2600202D260020FA0C0020DF
:2024AC002E2600202F260020D40A0020540C0020560C0020580C00205A0C00205C0C002095
:2024CC00000D0020D60A0020D80A0020DA0A0020DC0A002024260020DD0A002000B5ADF1F3
:2024EC00940D20900020239002F076F807F0ECF8012807D109F0F8FA022803D1239840F09C
:20250C00010023907448006800F44000800D012809D17248006800F07F40010E012088404A
:20252C002399084323906E48007808F029FB6D490860002021906B482199006888420BD919
:20254C002198694AFF2111542198401C21906548219900688842F3D800202290219036E0BB
:20256C002198209951F8200000F0FF00FF282BD02198209951F820005A49096800F0FF0085
:20258C0081420AD92198209951F82000012100F0FF0081402398014201D002209AE02198B8
:2025AC00209951F82000012100F0FF008140229801432291209921984B4A51F820009DF865
:2025CC00841000F0FF0011542198401C21902198209951F8200000F0FF00FE28C0D1092097
:2025EC0003F090F820984149086017A809F061FC01208DF874003E48012117AA0AF07AF8A6
:20260C0000202190374821990068884237D92199012088402399084205D02199354A042087
:20262C0042F8210023E02199012088402299084209D021982C49085C209951F820102E4875
:20264C0001F034FF07E021992B4801F0FF0141F4C04101F02BFF21984FF0FF3100F0FF00DD
:20266C0007F07AF82199234A002042F821002198401C21901B48219900688842C7D801A8E6
:20268C0009F0BBFB1D4800780990002000901D4A1B48102101AB0AF029F80DA809F02AFCC3
:2026AC0019480068139000201490184818490DAA00230AF017F817481649006820F47C5034
:2026CC0040F400500860144901200860134901200860002025B000BDB43F0050A83F00500B
:2026EC0022240020A0260020FC2400208C1A002078250020C8210020007FC767DCCC000061
:20270C005C250020B9AB0000E0CC00002C230020C9760000003009400C40094008000940EF
:20272C0090B503AFADF11C0D02938DF816200191009009F0F7FF04907848B0F900107648A3
:20274C00B0F90000401A00F580506FF31F30082811DA71487049B0F90000401C6FF31F30B1
:20276C0008806D480088ADF81400BDF9140006F021FD039005E0049809F0D0FF6FF00100B5
:20278C00C8E00098703009F0B7FE08F051FF0198039988609DF816000399887702980399BE
:2027AC004860BDF814000399888300980399C86097E818005A490398202222401030194087
:2027CC0080E8060003980021C1775648006818B35448039905F09EFD70B94F484E49B0F9F2
:2027EC00000000F6FF706FF31F300880049809F095FF6FF001008DE0BDF814000099A1F83E
:20280C0094000399C87F40F08000C877049809F085FFBDF914007DE04248039905F07AFD74
:20282C0070B93D483C49B0F9000000F6FF706FF31F300880049809F071FF6FF0010069E064
:20284C00BDF814000099A1F894000399C87F40F08000C8770099002081F896003248007851
:20286C0078B13248007860B13149012008702E49002008702F49002008702F490878401C9A
:20288C000870049809F04AFF2C48006800283FD12648007818B1192009F04CFD38E0284810
:2028AC000078002834D109F03DFF04902548007830B1254901200870049809F02FFF27E007
:2028CC000398806805F0F2FB20490860B8B1224809F012FE1E490968CA681C490968891A57
:2028EC001C4A1268B1FBF2F109F014FF1A4809F003FE09F00BFF049809F010FF08E00498CA
:20290C0009F00CFF154809F027FE042109F010FABDF9140007B090BDDC250020DE250020F2
:20292C00F1EFFF9FCC25002020240020FC230020212400201D24002005240020D025002035
:20294C001E2400201F2400200624002018240020F823002050CD0000482400206023002079
:20296C0000B5ADF1240D0590002008900598406806900598806807900698007B012825D14B
:20298C000899481C08900798007E40F000404DF821000798417E7848084308994DF821002B
:2029AC004A1C08920899481C08900798807E40F000404DF82100069890F88D106F48084336
:2029CC0008994DF821004A1C08923AE00798017E6948084308994DF821004A1C089207980A
:2029EC00417E6748084308994DF821004A1C08920698007E18B10698007E012809D1079868
:202A0C00817E5D48084308994DF821004A1C089208E00798817E5B48084308994DF8210039
:202A2C004A1C0892069890F88D00FF2809D0069890F88D105348084308994DF821004A1CC1
:202A4C0008920898411C0891FE214DF8201006986946903001F04EFE0699C1F89C0008B9A7
:202A6C00002087E006984849007B51F8200001283DD1079A069807991268D0F89C00097E35
:202A8C00B2F1804F01D1092200E0212207F094F9079A069807991268D0F89C00497EB2F1ED
:202AAC00804F01D10A2200E0222207F085F9079A069807991268D0F89C00897EB2F1804F6E
:202ACC0001D10C2200E0242207F076F9079A069806991268D0F89C0091F88D10B2F1804F0A
:202AEC0001D10B2200E0232207F066F941E0079A069807991268D0F89C00097EB2F1804F79
:202B0C0001D10A2200E0222207F056F9079A069807991268D0F89C00497EB2F1804F01D179
:202B2C00092200E0212207F047F9079A069807991268D0F89C00897EB2F1804F01D10C22CE
:202B4C0000E0242207F038F9069890F88D00FF280FD0079A069806991268D0F89C0091F81D
:202B6C008D10B2F1804F01D10B2200E0232207F023F9012009B000BD000480A000200080A8
:202B8C00004000800004C0A014CD00002DE9F04F0128ADF1140D40F0F280DFF81492D9F8F7
:202BAC00DC00012840F0E9800220C9F8DC0009F095FD0290012006F03BFE20B10121064600
:202BCC00C9F8DC10D5E009F09DFD03906E484FF00008C0F80080012008F072FE012818BFA3
:202BEC00CDF8008004D1404606F09CF90120009066486E4CC0F800801934D4F8FF0F1120F5
:202C0C0009F034FC00280CBF46460126102009F02DFC08B146F002060F2009F027FC08B18C
:202C2C0046F004060B2009F021FC30B1584800685849006B0246088890470A2009F016FC2E
:202C4C000028404618BF01204FF0805B0BF5DC7528B128685049006B0246088890474F48A4
:202C6C000127076028688069014646F0200088474B48076009F0F4FB00F001010191400826
:202C8C0015D2484809F0ABFB8246BAF1040FF8D0BAF1010F06D1DBF8D8014068024641480D
:202CAC00032190474049086820F003000860404600F080F82868D4F8FF1F806B80470198E6
:202CCC0001280ED0BAF1010F06D1DBF8D801406802463448394690473349086840F00300C2
:202CEC0008602A480760286840690146304688470B2009F0BBFB28B128682649C06A02469E
:202D0C00088890470A2009F0B1FB28B128682249C06A024608889047204807600322C9F80F
:202D2C00DC201F4BC3F800802868406B0146304688470128F8D1042006F07AFD12480760DB
:202D4C001A48D4F8FF1F01688909FCD30098012802D1384606F0E6F809F07CFB082006F0DD
:202D6C0067FD06460398C9F8DC7009F0C7FC05F039FD029809F0AEFC02E0042600E00126B8
:202D8C00304605B0BDE8F08F0C40094000022243B80100103ECA00003ACA00002820086057
:202DAC0080010443004003402422084014100940500600202DE9F84F82467A48DFF8D89124
:202DCC0035380068800880F0D88007F0EDFF054678480830D0F8008000244FEA2876761CC7
:202DEC005FEA98500AD2C5F13E0015F10A0F4FEAE000D8BF08208642B8BF061C634FD7F8ED
:202E0C007C01C0F3046009F0E3FA83463868C0F3044009F0DDFA06EB0B020090162A05DA5F
:202E2C0012F10A0FB8BF6FF0090200E01522584B584F02F01F0141F4F8511980396811F05D
:202E4C00030F18BF0124C90828BF44F00204BAF1000F18BF44F00404494691F90730EB1A44
:202E6C00052B04DA8B79A34208BF888864D0DFF82CE10F2DA5F10F0C25DB0CEB0513A3F1D0
:202E8C00F00C4FEA2C27072F88BF07273E46062E88BF06265EF82600042303EB86037646F2
:202EAC00F3581B1A03F0FF06E00824BFC3F307200644A00824BFC3F307400644600828BF7B
:202ECC0006EB136601E0002637465EF827E0E0080EF0FF0324BFCEF307200344A00824BF16
:202EEC00CEF307400344600828BF03EB1E630098B6B2ACEB07277E43801A06F1800603EB2E
:202F0C001623D8BF0120342208F0FF0742437A43B2FBF3F04FF6FF72824238BF101C802D44
:202F2C0080B2888005DA15F1800FB8BF6FF07F0500E07F25CD718C71194A12681F280A6030
:202F4C004FF0000208D340F2FF11814206D24008521C8142FBD301E01F208880124F114942
:202F6C000F38000942EAC00247EA0200C1F8FB0F0026C1F8FF6FBDE8F88F0D4F0B4E494654
:202F8C0008203760891D0870BDE8F88F3C1100506E62084024220840902600209C13005004
:202FAC00082009403500094000E7A48030100940FDFDA400AC3F00500EB500928DF80510BA
:202FCC008DF8040000208DF80600BBE09DF80500082806D100999DF80520694803F0A8FBDB
:202FEC00CAE018208DF80600C6E09DF8050014280BDC64480021152204F0C4F900999DF812
:20300C000520604803F094FBB6E018208DF80600B2E09DF8050014280BDC5B4800211522B2
:20302C0004F0B0F900999DF80520574803F080FBA2E018208DF806009EE09DF805001428EE
:20304C000BDC52480021152204F09CF900999DF805204E4803F06CFB8EE018208DF806008E
:20306C008AE09DF8050014280BDC49480021152204F088F900999DF80520454803F058FB99
:20308C007AE018208DF8060076E09DF8050014280BDC40480021152204F074F900999DF885
:2030AC0005203C4803F044FB66E018208DF8060062E09DF8050014280BDC3748002115224A
:2030CC0004F060F900999DF80520334803F030FB52E018208DF806004EE09DF8050007F0F7
:2030EC000BF902900298B0B12C482D490068814203D02A48006807F06BFF029800999DF848
:20310C00052003F015FB0298244908609DF805002449087030E013208DF806002CE09DF81E
:20312C000500072806D100999DF805201E4803F0FFFA21E018208DF806001DE002208DF86B
:20314C00060019E09DF804000828F7D801A151F820008746D92F0000F72F00001F30000077
:20316C00473000006F30000097300000BF300000E73000002B3100009DF806000EBDC04698
:20318C00740C00206C0B0020810B00202D0B0020420B0020960B0020570B0020180C0020F4
:2031AC00000C00201C0C0020F30C00202DE9F0411C4615468C4208BF854282BF002300228A
:2031CC00E5E0002C08BF002D0AD100290EBF00286FF000006FF0000100F0E1F8BDE8F08167
:2031EC005FF000085FF0000E002C08BF8D429CBF2C1C0025070C47EA01470E0CB44208BF22
:20320C00BD429EBF5FEA044444EA15445FEA0545070A47EA01670E0AB44208BFBD429EBFC0
:20322C005FEA042444EA15645FEA0525470847EAC1774E08B44208BFBD4200F29380870899
:20324C0047EA81778E08B44208BFBD427CD8C70847EA4177CE08B44208BFBD4266D80709FB
:20326C0047EA01770E09B44208BFBD4250D8470947EAC1674E09B44208BFBD423AD8870940
:20328C0047EA81678E09B44208BFBD4224D8C70947EA4167CE09B44208BFBD420DD8E601B2
:2032AC0046EA5566EF01B14208BFB84201D3C01BB14158EB08085EEB0E0EA60146EA956648
:2032CC004FEA8517B14208BFB84201D3C01BB14158EB08084EEB0E0E660146EAD5666F01CE
:2032EC00B14208BFB84201D3C01BB14158EB08084EEB0E0E260146EA15762F01B14208BFF9
:20330C00B84201D3C01BB14158EB08085EEB0E0EE60046EA5576EF00B14208BFB84201D3F6
:20332C00C01BB14158EB08084EEB0E0EA60046EA9576AF00B14208BFB84201D3C01BB14127
:20334C0058EB08084EEB0E0E660046EAD5766F00B14208BFB84201D3C01BB14158EB0808C1
:20336C005EEB0E0EA14208BFA84201D3401BA14158EB08085EEB0E0EA34208BFAA423EBFEA
:20338C002D0A45EA0465240A89D3734642461E4617460B46024631463846BDE8F08170476B
:2033AC002DE9F843814609F04FF8002100B901216B4E30680028FCD06C4D01242D1DEF6AE7
:2033CC00346009B109F046F8DFF89881C7F3072008F1BC01086009F037F8002100B9214604
:2033EC0030680028FCD02F68346009B109F032F8C7F38440C8F8C00009F026F801460020B1
:20340C0001B92046014630680028FCD0ED69346009B109F01FF8C5F38120C8F8D000B9F562
:20342C00C061C8F8B81000F0968098F8D80068B9C8F8D410D8F8C000C8F8C800D8F8BC7090
:20344C00C8F8C470D8F8D060C8F8CC60D8F8D410D8F8BC60002954BF02206FF00100454697
:20346C0005F1C8031A6801EB41014018411000EB917002EBA0021A60D5F8C810C5F8C460AB
:20348C0000291CDD1E293DDDD5F8CC0030B93429B4BF15391E21C5F8C81025E02A29BABF58
:2034AC00D5F8C8000B381E20C5F8C800D5F8C4003F28B4BF401C3F20C5F8C4001FE0D5F8F2
:2034CC00CC00032812D011F10B0FC6BFD5F8C8000B30201CC5F8C800D5F8C4000028CCBF91
:2034EC00401E0020C5F8C400032009E011F1150FC6BFD5F8C8001530201CC5F8C80000204F
:20350C00C5F8CC00B5F8C400174E30214FF47F4208230090304606F0FBF8009404214FF4D5
:20352C0000321123304606F0F3F8B5F8C80004214FF4F80212230090304606F0E9F8B5F82C
:20354C00CC0020214FF440620A230090304606F0DFF8BDE8F883002088F8D800BDE8F883B5
:20356C0000800C405006002000A00C4000A00C4080B502AFADF1180D029301920091ADF81E
:20358C000C0000208DF8100000990098496840680978407801F0FF0100F0FF0001EB0021AE
:2035AC00ADF80E108AE03888082803D907208DF81000A1E03888B988C0F10800884201D96B
:2035CC00B88802E03888C0F10800029908803A884B498918029A0198128803F0A9F88BE05C
:2035EC000098C06808F096FDADF814003988BDF81400884203DA07208DF810007CE03988B1
:20360C00BDF81400401AB988884201DDB88803E03988BDF81400401A029908800099CA689D
:20362C0039888918029A0198128803F081F863E0344839880078884203DA07208DF8100086
:20364C005AE0304839880078401AB988884201DDB88803E02B4839880078401A02990880E4
:20366C0029490A6839888918029A0198128803F05FF841E03888072803D907208DF8100037
:20368C003AE03888B988C0F10700884201D9B88802E03888C0F10700029908803A881B49C4
:2036AC008918029A0198128803F042F824E00298002101800A208DF810001DE0BDF80E00A2
:2036CC0042F62321401A072802D92D38D2D0EEE701A151F820008746B3350000ED35000040
:2036EC00ED350000ED350000ED350000ED350000ED3500003D3600009DF8100006B080BD09
:20370C00740C00201C0C0020180C0020F30C002000B5ADF14C0D0E910D900D9840680F907E
:20372C000D988068109008F0FDFF11900F9890F8D900012804D1119808F0F0FF0020A5E080
:20374C000F99012081F8D900119808F0E7FF0F990020C1F888000E980F99006908610E98EC
:20376C000F99406948610E980F99007E08760E980F99007B08730E980F99007808700E98D1
:20378C000F99406848600F99002081F8A4000E984069092801D2002000E001200F9981F8AB
:2037AC008C001098007B01F0ADFF0D9803F0FAFF10980F99C07E81F88D000D98FFF7D0F829
:2037CC0078B91098007B01F033FF08F0ABFF11900F99002081F8D900119808F09FFF0020AA
:2037EC0054E001A808F023FB0D98069010984079099000201099264A00900F98097901ABF7
:20380C001C3008F073FF01A808F08FFB0D9805901098806807900F981E4901AA0023383016
:20382C0008F060FF0F98007878B901A808F057FB01208DF81C000F98002101AA6C3008F019
:20384C0059FF15490F98816003E00E980F998068886004F039F90F99C1F8A0000F98007BD4
:20386C0001280BD10F980D49D0F89C0008F052F80F980D99D0F89C0008F088FA0F980D9B1A
:20388C00074A0421C43007F0B7FA0D9813B000BD91540000CD980000FDB90000358C000024
:2038AC0091B900002DE9FC415E4C574D574EDFF860815A4F94F8E410481E0B2861D8DFE8F2
:2038CC0000F07B2C43062343062343067664042907D001220A2945F8212C14BF022003204E
:2038EC0004E02021012045F8211C024684F8E200002045F8390C0827C5F8FF7FC5F8F37F1B
:20390C0045F8392CBDE8FC81052914BF09200620002584F8E400356070E094F8E17001201F
:20392C00383D002FC5F81B0004BF0620002102D00021F160032084F8E400032045F8010CC1
:20394C0031603068800859D294F8E400012503280DD00021404660220523009105F0D8FE34
:20396C0094F8E400062814BF0A200720D1E702200090002160220523404605F0C9FE0420DE
:20398C00C7E708F0A3FEBDE8FC812249002622480E60012505600E2001F04AFE022006F03F
:2039AC0091FF84F8E45084F8E360BDE8FC81002038600C2578601FE01948006800680146A2
:2039CC00202088472C3D41F61D560F2000214FF4C072072345F8010C4046C5F803600225B3
:2039EC00009505F095FE404600214FF4C072072306F0C2F90120386084F8E45004F17800D1
:203A0C0008F084FEBDE8FC8139400C4038600C4000A00C402C500C4004800C4034600C40F1
:203A2C00A00100105006002000B5ADF12C0D019100900198800FC0F09D80002003F0E4FBBE
:203A4C004D49002008604E484C4908600120FCF751FD4C4808F0B0FA4B4940F60A000880B5
:203A6C004A49002008804A49087820F00F00087048490020086048484749007820F00F0085
:203A8C0040F0010008700098806806900698002141800698079002E0079840680790079847
:203AAC00406830B107984068008840F60A018142F2D13549079841600799487B20F00F009B
:203ACC004873364808F099FC806809900998008840F60301814226D00998008840F6040113
:203AEC00814220D00098008CE8B10098203008900898002141800898002141600899087BC2
:203B0C0020F00F00087308980D30017821F00F0141F0010101701F49089808601E4908788D
:203B2C0020F00F0008700098806802A907F07CFC02A808F0CFFB0098806802F0C6FA0E4854
:203B4C0000680028FBD00C4900200860012007F0B7FE01280AD007980D30017821F00F01DB
:203B6C0041F0010101700E4808F026FA00980349806808600BB000BD1C10044000100440B7
:203B8C0001010E04F90F0000F4250020F625002000260020F825002001260020CC250020AE
:203BAC000585000000B5ADF11C0D0191009001F03FF94FF0FF3007F089FA0290029800286C
:203BCC002CD1002003900DF1120103AA04A805F0DFFE18BBBDF8100010281AD13E489DF817
:203BEC0012100078884214D103980590059800884FF6FF71814209D105984088C00B08D3BE
:203C0C00364A0420042105F075FB02E0039803F093FF039810B1039807F034FA304800884C
:203C2C0040083FD32E49088820F0010008802D48007818B92C480078002833D02A480078BF
:203C4C0018B103208DF80C000EE0284800788DF80C00274800788DF80D0026490A680DF11C
:203C6C000E00026089888180234800788DF81400224800788DF815001748007803A907F044
:203C8C00F5FD78B11E49082008701E48006848B11C480068006828B11A480068016818488F
:203CAC00007888470E480088800808D30C49088820F0020008801449002002F0A5F8084895
:203CCC000088C008FFF475AF0549088820F00400088005F0D1FB6CE71C2600202826002013
:203CEC00CC0A0020CE0A0020CF0A00202C2600202D260020FA0C00202E2600202F260020DD
:203D0C0024260020E00A0020540C00200EB5009007F002FF02900298800829D349480068AF
:203D2C00019028B3474900200860029A01980199006910408A69104340F002008861019871
:203D4C00414902690868904308600198103090E80C003E4908681A1C904308603C480199D4
:203D6C0004F0D8FA3B4808F0F7FB022107F0E0FF344800680190029880081DD20199029851
:203D8C00103106C90023014002EA0300002800D1002911D0019830490860029A0198019968
:203DAC00006910408A69104388612A4808F0D4FB4FF4804107F0BCFF2248006800283FD116
:203DCC00264808F01AFB0028019039D0244801990068C968884207D01E4808F0BDFB4FF401
:203DEC00805107F0A5FF2BE00198806804F05EF91C49086020B11B48006803F043FA1FE0DC
:203E0C00114901980A680069104308600198103090E80C000D490A68181C1043086012499E
:203E2C000020086001981149806808600E4800680028FBD0094807F091F9019801490860DD
:203E4C000EBDC046D0250020141004400C100440D825002060230020D4250020CC250020BE
:203E6C00F8230020182400201C1004400010044000B5ADF1140DADF80800002000900020EA
:203E8C008DF80C00BDF80800001DADF80800FFE7BDF8080000F003008DF810009DF810002E
:203EAC0038B19DF81010BDF80800401A001DADF8080007F055FF3E490860BDF80800102848
:203ECC0003DC3C480068019002E03B480068019001980088ADF80A00BDF80A00000C09D3A5
:203EEC00BDF80A0080F40040ADF80A0000208DF80C0020E09DF80C0090B1009901980A883D
:203F0C000088801808800099BDF808000988884211DC0098019001980088ADF80A001AE05C
:203F2C00BDF80800BDF80A10884214DD01208DF80C00019800900199BDF80A004018019011
:203F4C0001980088ADF80A00BDF80A000028C3D100200190FFE7019810B3BDF80810BDF895
:203F6C000A00401AADF80A00BDF80A0004280FDB0199BDF8080040180490BDF80A000499AE
:203F8C000880BDF80800019940F40040088004E00199088840F4004008800198001D0190E9
:203FAC000348006807F00AFD019805B000BDC046E0250020E4250020E825002000B5ADF165
:203FCC001C0D01910090009840680290009880680390029890F88C10019800888840ADF859
:203FEC00140003980068B0F1804F01D13E4800E03E4804900198806880B102983C4990F883
:20400C008C0051F820000499886001988168BDF8140040180499401E48600BE002983549D1
:20402C0090F88C0051F820000499886002980499A6304860039804990068083008600198E4
:20404C00049A018843F6F070491E00EA011091680843906003980068B0F1804F01D126484B
:20406C0000E0264804900198406880B10298244990F88C0051F82000049988600198416895
:20408C00BDF8140040180499401E08600BE00298184990F88C0051F820000499886003980D
:2040AC0004990E300860039804990068083048600198049A018843F6F070491E00EA011076
:2040CC00916808439060039902980A690399D0F8A0004969114307F098FC0398006803213B
:2040EC0007F09EFD07B000BD3004002000050020FCCC0000F4CC0000400400201005002014
:20410C0004CD000000B5ADF1340D009008F0DAFA0190019804F09AF80290002003900020BD
:20412C00049008F0D3F98DF820009DF8200018B19DF82000012802D16FF004007EE00298EC
:20414C0010B96FF0040079E00098406810B90020059012E000984068B0F1FF3F03D14FF0EC
:20416C00FF30059009E00098406805A904F0B0FA0790079808B1079860E00120079008F07C
:20418C009DFA0599081806903FE008A804F0F8FD0790079800BB9DF824000BA904F0C6FA5E
:2041AC00B0B9009883689DF826100A9ABDF82C00984768B1BDF82C00009988819DF8260081
:2041CC00009988730A98009908610020079023E00A9903A804F024FF012007900498401CCC
:2041EC0004900598B0F1FF3F0FD0059868B108F065FA0699081A0C900C9868B105980C995B
:20420C00884200D208E00C98059002980599406808F050FA0028B8D102980399083005F09F
:20422C0077F9049848B10298406808F03FFA0498401E049004980028F5D107980DB000BDC9
:20424C0000B5ADF13C0D00F0C7F93449086840F00200086001A807F05DFE314800780790FC
:20426C0031493048002301AA08F03CFA01A807F0D3FD0020ADF81C002C480078099000204E
:20428C002C4A00902A48192101AB08F02FFA01A807F040FE2848007807902949274801AAAA
:2042AC00002308F01FFA01A807F0B6FD0120ADF81C002448007809900020244A0090224884
:2042CC001A2101AB08F012FA214822490022002308F0E8F9204807F06FFE20480D900D987F
:2042EC004FF6FF7181831E49012008700D980021C1771C49002008701B49002008701B499E
:20430C00002008701A49002008701A49002008701949002008600FB000BDC046002009402E
:20432C0042CD000060230020ADB9000040CD0000942500203DAC000043CD000094230020A3
:20434C00414D000041CD0000B0250020997800004824002075A70000294900001C25002034
:20436C001D2400201C2400201E2400201F2400202024002021240020082400202DE9F0414F
:20438C00424C474D8046C8F38140401E02D0401E2AD025E0284620300168880C20D24FF430
:2043AC00804020603A48D0F802204B0AC1F3033703F0800322F08F02134347EA0302C0F8A5
:2043CC000220D0F801300E1266F30303C0F80130026801F0E70722F0E70247EA020102E0F4
:2043EC004FF00041204601602A4E06F108000068C0F3C0070FB94020A0624FF400702064B0
:20440C0007F070FF40F0300084F8C800C8F3815038B3401E03D0401E1ED002211DE0012051
:20442C0007F04EFA07460420394604F0FFFF042007F046FA8742FAD1366826F07F4006F0F7
:20444C0029FA15480068036807214FF06022300E98474FF4806020600321042004F0E6FF33
:20446C0006E00420012104F0E1FF0C4806F012FA284600680B4947F6180700F03F0084F8A9
:20448C00CB0F094E0F803068BDE8F08140A00C400A600840A83F0050B4010010BD3786004E
:2044AC006C13005070B00C402C20094000B5ADF1140D01910090019800F0FF008DF80C0071
:2044CC000198000803D301993E48484001909DF80C103D4850F82100029001980299484033
:2044EC00009900220140480E00D301228DF80D200099029888430290009801990840334930
:20450C000140029801430291009800F4E020B0F5E02F02D10298400E22D3009810F4E02F42
:20452C0015D19DF80D00D8B111E0029820F4E0200290029840F4A020029011E0029820F46E
:20454C00E0200290029840F4C020029008E0029800F4E020B0F5A020F0D0B0F58030E4D0D9
:20456C009DF80C201848029940F822100098C00D09D30198C00D01D3012000E000209DF8D8
:20458C000C10134A50540098000E18D308F0CAF804909DF80C10012088400E4909688143ED
:2045AC000198000E04D39DF80C200120904000E00020084307490860049808F0AFF805B0CC
:2045CC0000BDC046006000A000100840007F077F00200240D02002402DE9F041444C94F8B8
:2045EC00E700ADF1280D00286FD1394F387B01250021242284F8E7507E6884F8E60008239F
:20460C00C4F80C6101A808F049F8002604F10C00069601ABADF814602E490796324608F077
:20462C0041F82D4904F1300001AB324608F03AF82A4904F1540001AB324608F033F8B86829
:20464C00014628468847DFF89C8025487B7B0078D8F80410C1F381571BB1032F03D184F83E
:20466C00E150032F16D0022F14D0012F26D103201D4C009031464FF040521C23204605F0AB
:20468C0047F8009531464FF400720923204605F03FF813E0022006F02DF9032F0CBF4FF4DF
:2046AC007A7142F21071114800685434B1FBF0F1204608F02FF8204608F028F8D8F80000A5
:2046CC00C00802D2304606F015F90AB0BDE8F08168CC000073680000DD6E00000D7300000E
:2046EC0022240020B03F005000A00C4050CD00005006002000B5ADF1140D019100903F486D
:20470C0007F00CFF4FF0FF3107F0D4FF0020029001208DF81000002003901DE09DF8110094
:20472C00FF2816D036489DF811100068884205D99DF81100334951F8200018B100208DF823
:20474C00100016E09DF81110012088400399084303900298401C0290019850B102980199D8
:20476C0051F8200000F0FF00C0B2FE288DF81100D4D19DF8100010B90020009035E0009837
:20478C0000210160009800214160009800218160002002901CE09DF81100FF2815D09DF8A2
:2047AC001110184A009842F821009DF811200099012090404A68104348600298019951F8FD
:2047CC0020201149009805F017FB0298401C0290019850B10298019951F8200000F0FF00E6
:2047EC00C0B2FE288DF81100D5D1044807F096FE07F05CFF009805B000BDC04678250020E3
:20480C00A0260020C8210020007FC76700B5ADF1240D02920191009000988068049000980A
:20482C00406803904FF0FF30069067E0039A127B00210020012A00D1012000B101210398F0
:20484C0080F8A4100020069060E00399002081F8A4000020069059E0029800788DF81C00AF
:20486C000398007B012805D19DF81C1029480843059004E09DF81C102748084305909DF87C
:20488C001C00FF2826D003980599D0F89C0002F0B3F900283AD1049A03989DF81C101268F1
:2048AC00D0F89C00B2F1804F01D10B2200E0232205F082FA03980399D0F89C0091F88D10C0
:2048CC0002F06AF89DF81C00039981F88D00002006901BE003980399D0F89C0091F88D10B3
:2048EC0002F05AF89DF81C00039981F88D00002006900BE06FF00100069007E001982038A6
:20490C0094D0401EA1D0401EA6D0F3E7069809B000BDC046002000800004C0A010B5ADF129
:20492C00180D019100900198042863D132480390324807F062FD029020B102983049C068B0
:20494C00086007E00398C07F400803D303982C49406808602A48006840682A49007808600F
:20496C00274800682749406809680078884210D023480068806960B121480068806904908E
:20498C001F48049C00686FF0FF0100224FF00073A047022005F0AEFF112000F0B3FE1A4989
:2049AC000120087016480068007C10B11748007810B90E2000F0A6FE11480068406880689C
:2049CC0020B90F4800684068C06828B110490020086011480F49086007F094FC0F49002091
:2049EC00086010480E4908600F4807F0E5FA192007F050FE06B010BD1C250020CC2500208C
:204A0C00F8230020D02108401E2400201C2400201C100440001004405100070618100440C6
:204A2C001410044002000040353A000080B502AFADF1200DADF8123003920291ADF81000DC
:204A4C0000208DF81400FF208DF8150002980078022853D1029802994068496840780978B1
:204A6C0000F0FF0001F0FF0101EB0021ADF8181037E0388838B9BDF81200012806D00D20B5
:204A8C008DF8140002E00B208DF814009DF81400002836D10298C0680790039807990078E7
:204AAC00087002982149C068814203D100208DF8150026E002208DF8150022E038880090E1
:204ACC0001200190BDF812300299039ABDF8100002F046F88DF8140013E00A208DF81400A5
:204AEC000FE0BDF8180042F60211401AE6D04DF2EF61401ABDD0801EBBD0EEE701208DF879
:204B0C0014009DF81500FF280CD00948006848B107480068006828B10548006801689DF86B
:204B2C00150088479DF8140008B080BD250C0020200C002000B5ADF1140D03928DF811109B
:204B4C008DF8100000208DF8120053E09DF81100012804D1039830490078087057E01820B3
:204B6C008DF8120053E09DF81100012804D103982A49007808704AE018208DF8120046E09E
:204B8C009DF81100012804D103982549007808703DE018208DF8120039E09DF81100012898
:204BAC0011D103981F490078087011200090FF2001901E481E4B02901B481A4900680022F2
:204BCC0000F018FB23E018208DF812001FE09DF81100052806D10398164902680A60007904
:204BEC00087114E018208DF8120010E002208DF812000CE09DF810000028A7D0401EB2D0B4
:204C0C00401EBDD0401EC8D0401EE0D0EEE79DF8120005B000BDC046250C0020270C002001
:204C2C00290C00202B0C0020982600202B60000060070020060D002000B5ADF11C0D00908D
:204C4C0000984068019000988068039007F06AFD05900198D0F8880018B9059807F05EFDC8
:204C6C0061E0059807F05AFD0398006807F099F803980068032106F0C7FF039901980A69E6
:204C8C000399D0F8A0004969114307F011F803980068012106F0D0FF03980068012107F0F8
:204CAC007FFA009804F059FC0198D0F888000199406805F0E5FB0198D0F88800007C0428FD
:204CCC0004D00198D0F8880003210174039901980A690399D0F8A0004969114306F0D0FFFB
:204CEC0003980068B0F1804F01D1104800E0104804900198D0F888200498816843F6F07018
:204D0C0008401168A1EB1011491E11600198D0F88800029001990020C1F888000198029997
:204D2C0082680098904707B000BDC046300400200005002010B5ADF1180D019100903A48EF
:204D4C00029007F0EFFC03900298806910F4602F45D002988069400C8DF810009DF810000C
:204D6C00400803D300208DF810000EE09DF81000800803D301208DF8100006E09DF8100022
:204D8C00C00802D302208DF810009DF81000401D40B203F0F3F99DF81010029A012011312C
:204DAC008840916981439161039807F0B7FC9DF81010029800EB8100806898B19DF8101089
:204DCC00029800EB8100846802989DF81010406800224FF00063491D09B2A04702E0039895
:204DEC0007F09CFC0298806928B1104807F0B4FB002106F09DFF0298C07F800811D302982C
:204E0C00406948B102984469029840686FF0010100224FF00043A0470299C87F20F002007B
:204E2C00C87706B010BDC0461C250020942300200EB52C482C4905F0CFFA2C4900200870EF
:204E4C002B494FF6FF70088005F0FEF92949087000202A4900900120019027480022002337
:204E6C0003F01AFB0020254900900220019024480022002303F010FB002020490090042061
:204E8C00019020480022002303F006FB1E49042008701E481022002102F074FA1C48002133
:204EAC00102202F06FFA1B49002008601A49002008701A4900200870194907200870194914
:204ECC0000200870114A0220102104F0EBF9104A0320102104F0E6F90E4A0420042104F092
:204EEC00E1F90EBD1C2600202026002024260020D40A00202324002090240020CDC4000005
:204F0C00B4240020D8240020252600203026002040260020282600202C2600202D260020B7
:204F2C002E2600202F2600202DE9F04390460A68D8F800401678814600271D463846ADF1E0
:204F4C00140D531C242E0B6053D112F8016F5B1C4C2E0B600ED1AA68E41C24F00304241DB1
:204F6C0054F8040C494603F0ADFD2968EF600127091A2960462E1AD1E41C24F00304241D2E
:204F8C0054F8040CE41C029024F00304241D54F8040C002749460390AA68ADF8047001A842
:204FAC0001F014FC2968EF600127091A2960532E1FD1E41C24F00304241D54F8040CE861BE
:204FCC00C8F80040288B0090A968EA69D9F800004346FCF775FAD9F80040002714B101194B
:204FEC00C9F80010D8F800402968EF60091A01272960662E0AD12B8B23B9E41D24F00704EF
:20500C00083403E0E41C24F00304241D1FB9E9690E700127EF60C8F8004005B0BDE8F0831D
:20502C0000B5ADF14C0D119310920F910E903548007820B9FFF704F93249012008700F98B8
:20504C0018B10F980E99486001E0002058E0109818B110980E99886001E0002050E007F07C
:20506C0061FB129028480078002804DC26490878401C087004E0129807F050FB00203FE064
:20508C00129807F04BFB119820B909A806F0A4FD09A8119011980E990068086011980E9991
:2050AC004068C86011980E99007A087411980E99C06848611198006918B111980E99006919
:2050CC0088610E9800217822203002F05BF9684606F0FAFE01208DF818000E9800216A4613
:2050EC00383007F007FB684606F0C2FE0E9806900E98064900226B46703007F0D3FA0E98D1
:20510C0013B000BD0F0C002004240020B5C400007CB50446084602F02DFF344E024618211D
:20512C00304605F001FD06F0E7FB40F2FF32002380B22C210090304604F0EAFA07F0DAF876
:20514C001C210246304605F0EFFC06F0C7FB02461421304605F0E8FC06F002FD0246102176
:20516C00304605F0E1FC204602F02EFE02460C21304605F0D9FC204606F0DAFC1C4D4000C7
:20518C0040F020002870204606F0DEFC40F010002870204606F058F902462821304605F064
:2051AC00C3FC204606F0E8FC400040F06000E870204606F0EDFCC00040F0800005F8080CF6
:2051CC00204606F0F1FC800040F47C40A5F89300204605F0BFFC02460821304605F0A4FC48
:2051EC004FF48000A5F2091108607CBD00A00C4049A10C4080B502AFADF1200D04938DF89F
:20520C0014200391029000208DF81600029828B1039818B1049808B1B86808B9022052E00C
:20522C0000208DF8150046E09DF81510029800EB81000690069800884FF6FF71814235D089
:20524C0006988078002831D039880498039A04F079F80790079848B306988078400810D332
:20526C0038790090B868019006989DF81420079B0088012100F07CFE9DF8161008438DF888
:20528C00160006988078800810D338790090B868019006989DF81420079B0088022100F055
:2052AC0067FE9DF8161008438DF816009DF81500401C8DF8150005489DF8151000788842F3
:2052CC00B2DC9DF8160008B080BDC0462324002000B5ADF11C0D01910090FCF711FC4FF04A
:2052EC00FF3005F005FF02900298002846D1002003900DF1120103AA04A804F06BFB002870
:20530C0036D101208DF81400BDF81000102819D122489DF812100078884213D10398069061
:20532C00069800884FF6FF71814206D106984088000907D300F0C6FF04E0039805F0FAF987
:20534C008DF81400039898B19DF8140080B1039805F0AAFE0CE01248006805F089FD0590F4
:20536C00059828B1059805F08FFC059805F042FE0B48006807F08AF90028ECD009480088CA
:20538C00C008ACD30749088820F004000880064806F0A2FE06F068FCA1E7C04660260020CC
:2053AC00682600206C2600206C24002000B5ADF13C0D05938DF835208DF8341004900498CA
:2053CC00406806900021162207A801F0DBFF9DF83510480000EB81008DF836009DF836009C
:2053EC008DF838008DF837000EE000208DF8370013E07F208DF838000FE000208DF8370044
:20540C007F208DF8380008E00698007D28B1401EEBD0401EEDD0401EEFD09DF838009DF895
:20542C00371088420ED09DF8340000909DF834009DF83720019006989DF8383000690021AD
:20544C0001F0D9FF1198009012980190139802901498109B0390059A162107A806F0E2FA85
:20546C009DF83400009006989DF836300069002107AA06F017FA06980069002106F087FE49
:20548C000FB000BD00B5ADF1140D009000984068019000988068029002980068012106F083
:2054AC00F6F8039002980399006806F079FE0398400823D302980068012106F0BDFB019810
:2054CC00D0F8880018B10098FFF7B6FB44E00298006806F066FC02980068032106F094FB3F
:2054EC00029901980A690299D0F8A0004969114306F0DEFB009804F030F82DE0019802992C
:20550C00D0F8A000496905F0D4FB58B102980068022106F079FB01980299D0F8A0004969BB
:20552C0006F0C6FB01980299D0F8A000096905F0C0FB88B102980068012106F065FB01989E
:20554C000299D0F8A000096906F0B2FB0198383007F008F807F096F805B000BD30B5ADF1B5
:20556C002C0D069105900598806807900598406808900020099007980079FE2809D0079852
:20558C0001792A48084309994A1C09920DEB8101C8600998411C0991FE210DEB8000C16033
:2055AC00089803A9FFF7A6F80899C8600898C06808B9002037E006980899007808750898A2
:2055CC0008993430C1F8340408984FF48061C0F838140898089918303CC801F23C413CC107
:2055EC000DC881E80D00684606F022FD089801216A4600F2344000F0E7FA0899086108983E
:20560C00006958B108980069002104F094FC08980069002106F0BBFD059804E00898C0683D
:20562C0005F08AFD00200BB030BDC0460008C0802DE9F843044607F075F881462D48021976
:20564C0092F8ED10491ECFB2002F82F8ED704BD12B4D05EB84052E78698836F07F078846AB
:20566C001AD1F10911D24FF08054D4F8B801806901464046884704F5DC742068406B014676
:20568C00404688470228F8D121E000EB8800D0F80011002088471AE04FF08054D4F8B801E8
:2056AC00006A014640468847D4F8B801806A014640468847D4F8B801006B01464046884741
:2056CC0001210D4A0D48116001688908FCD306F03F003F2801D0FFF7ABFF687800F03F009A
:2056EC003F2801D0FFF7A4FF484607F017F8BDE8F883C0465006002028200860282008405D
:20570C0010CA00002DE9F041064607F00BF82D4D8046A91991F8ED00421C002881F8ED2092
:20572C004AD1294C04EB8604277807F03F003F2801D0FFF7E7FF607800F03F003F2801D02C
:20574C00FFF7E0FF668837F07F001AD1F80911D24FF08054D4F8B801406901463046884738
:20576C0004F5DC742068406B0146304688470128F8D121E005EB8605D5F8001101208847D9
:20578C001AE04FF08054D4F8B801C069014630468847D4F8B801406A014630468847D4F82F
:2057AC00B801C06A0146304688470121074A0848116001688908FCD3404606F0AFFFBDE8A2
:2057CC00F081C0465006002010CA0000282008602820084000B5ADF1140D009006F072FF4B
:2057EC0000F0C4FD0290029810B96FF002004FE006F0B6FA0390002001900198062840D2A4
:20580C000199880000EBC1002249085A18BB0199880000EBC10000991E4A89881152019931
:20582C001D4A880000EBC100029911500199880000EBC1000099194A896811509DF8040010
:20584C00009908730298009940680861039806F0B5F800201CE00199880000EBC1000D4966
:20586C00085A00998988884205D1039806F0A6F86FF002000CE00198401C019001980628A7
:20588C00BED303F0A5FB039806F098F86FF0030005B000BDE4220020E8220020EC22002065
:2058AC0000B5ADF1140D019100900098406803900098806804900198006808B9002051E04C
:2058CC0006F030FF02900398D0F8880038B1029806F024FF019803210174002042E0019871
:2058EC000121017403990198C1F88800029806F015FF039890F8A40048B10399039891F86B
:20590C008D201949D0F89C00114304F0A7F801980399406804F0D0FD0498006806F04CFA43
:20592C0000980199FEF74AFB04980068012106F08FF903980078A0B903986C3006F0FAFDBB
:20594C000399496806F0B6FE58B90098FFF774F903986C3006F0EEFD002106F0ABFE002040
:20596C0000E0012005B000BD0000068000B5ADF11C0D059005984078162810D105982B498C
:20598C0040880978082204F051FB002834D10120FAF74EFB059826490860002033E005987C
:2059AC0000797E2812D10598007A0090002001900020029000200390002004901D4800689B
:2059CC0012A30521002204F015F915E0059800797F2811D1059800890090002001900020A1
:2059EC0002900020039000200490124800680BA30521002204F0FEF805990598097908300B
:205A0C0005F0D4FA012007B000BDC04646432056696F6C617465643A202564004D54552042
:205A2C0053697A653A20246400C046C060260020640C0020600C0020294A2DE9F0418046D5
:205A4C000126284816600768002FFCD0294C2A4FC020443C206007F1080001682348890890
:205A6C0004D20168090C41F0F00100E072211E4D85F85412002111638768384601F0F8FCFC
:205A8C0040463946FFF744FB1C48B038816D40F20F226FF31F418A4212D901680068C1F325
:205AAC000363C0F3034003B15B1E072805D006280EBF0720801C00F00F0043EA00102870BB
:205ACC003846FEF75BFC0E4814380068C1680220884740202060064F3E60BDE8F081C046DD
:205AEC00101009409402224302600840AC3F00509404604244600C40A83F00506C13005021
:205B0C00B401001000B5ADF12C0D009000988068002832D10C20FEF7ABF90190019810B935
:205B2C006FF0030047E002A806F0ADF90020ADF818000020079001980890009841681F481D
:205B4C0002AA002306F09AFD019908600198006838B905F099FE019804F0AEF86FF00300C8
:205B6C0029E000980199C0684860009801990069886001980099886012E00098806801906E
:205B8C000F480068804702900198006805F050FD00980199006988600A48016802988847F7
:205BAC00019800990068496806F0B4FD0198006806F0ACFD00200BB000BDC04629C00000C0
:205BCC003C0C0020400C00202DE9F0472E4C2568D4F80490174688460646ADF1500D06F0C9
:205BEC00A1FD2988012902D106F098FD47E04FF0010AA5F800A006F091FD1FB9684606F014
:205C0C0017FA6F46002E3AD0B8F1000F37D003A805F0EEFF7868397A079099F807008DF8E7
:205C2C00241003A903F03CFF48B3686038680021AE62242285F82C800823A8600BA806F06B
:205C4C0019FD47460836304651460BAA06F052FD24367F1EF7D105F10C008DF844A051468F
:205C6C000BAA06F047FD204602F078F838B1D9F800102046112204F03FF8204600E000206D
:205C8C0014B0BDE8F087C046D4CC00000EB52848001D20F00300019026480290019902984A
:205CAC00401A25490860254901980860234824490068086021480068009005E00098002192
:205CCC0001800098801C00901C4801681A480068401800998842F1D81748006881081848A8
:205CEC00006800EB8100001F00900098002101801348006800900098E821018010480068A6
:205D0C00E83000900C48006881086FF0EB0000EB8100009908800B49009808600020FEF74A
:205D2C00A7F80949086006480649006808600EBDAC260020483F00209C260020EC2500201A
:205D4C00F0250020E4250020E8250020F8B506F07BFB06F085FB044604F00C000C2845D08A
:205D6C00E0081ED204F07AFF234E376805460120014605F07DFC31686943884211D21F4C44
:205D8C008220B0FBF7F0291A204606F0C3FC204606F0BCFC0120FCF7F9FE204605F048FCA7
:205DAC0025E0200922D21648610939BF016821F00101016841F0010102460160D2F89800D2
:205DCC004FF0805440F00300C2F89800D4F8B8018069014620208847D4F8B801094C806B96
:205DEC002168804701202060206800E030BF06F031FB02F0F3F8F8BD50CD00005C060020FC
:205E0C008C2108402C20094000B5ADF1140D00918DF804002449009809884088884211DC49
:205E2C00009821498088098888420BDB00981F49C0880988884205D100981D49008909887A
:205E4C0088422AD0052003F0F7FBADF8120019480088ADF8080000984088ADF80A00009874
:205E6C008088ADF80C000098C088ADF80E0000980089ADF8100002A805F0FAFD8DF80500D4
:205E8C009DF8050060B99DF804000B490870BDF812100A4803F084FC02E018208DF805009E
:205EAC009DF8050005B000BDD60A0020D80A0020DA0A0020D40A0020DE0A0020D8240020A2
:205ECC0000B5ADF1140D009006F0FCFB00F04EFA0290029820B903F07BF86FF003003EE0A2
:205EEC0005F03EFF039000200190019806282FD20199880000EBC1001A49085A10BB019960
:205F0C00184A880000EBC1004FF6F87111520199154A880000EBC100029911500199134AAE
:205F2C00880000EBC100002111509DF80400009908710298009940688860039805F03EFD66
:205F4C0000200CE00198401C019001980628CFD303F03EF8039805F031FD6FF0030005B03C
:205F6C0000BDC046E4220020E8220020EC22002090B503AFADF1240D06938DF821208DF82A
:205F8C002010ADF81C00BDF81C001B214FF6FF720DF11E0304F02CF805900598002837D0A9
:205FAC0000200090BDF81E000190FF2002907C680699059ABDF81C000DF11203A0478DF89E
:205FCC0022009DF82200D8B906984089ADF810009DF82000400809D3BDF81C009DF82120AF
:205FEC0004A904F098FF8DF8220009E0BDF81C009DF821203B7804A904F09AFE8DF8220093
:20600C009DF8220038B104A81B2104F0CFFF02E015208DF822009DF8220009B090BD80B57A
:20602C0002AFADF1180D029301920091ADF80C0000208DF80E003888002801DD0B2042E0B0
:20604C0000980078022836D100980099406849684078097800F0FF0001F0FF0101EB002143
:20606C00ADF810101AE00298012101800098C06801990078087024E00298052101800098F1
:20608C00C16801980A6802600979017119E00298002101800A208DF80E0012E0BDF81000C1
:2060AC004FF6F171401ADED0401EDCD0801EDAD0401EE1D0EBE702980021018001208DF810
:2060CC000E009DF80E0006B080BD704700B5ADF1140D009000990098896840680860002003
:2060EC000290029838BB142006F06BF902990DEB8101486002980DEB80004068A8B90020EF
:20610C0003900298039988420CD903980DEB8000406806F08DF90398401C03900298039904
:20612C008842F2D86FF003001DE00298401C029002980028D7D000200290029890B9029840
:20614C0002990A4A0DEB800052F82110009A40689368074A04F050FE0298401C029002985F
:20616C000028ECD0002005B000BDC04648CD0000398D000000B5ADF1140D009006F0A6F923
:20618C008DF810009DF8100018B19DF81000012802D16FF004003AE006F094FA019005F0C8
:2061AC00DFFD029000200390039806282AD20399880000EBC1001749085A00B922E0039904
:2061CC00880000EBC1001349095A00988088884212D1039A900000EBC2000F4A105802686E
:2061EC0001980021904200D1012100988160029805F0E4FB00200AE00398401C03900398FE
:20620C000628D4D3029805F0D9FB4FF0FF3005B000BDC046E4220020E82200202DE9F047B7
:20622C0008AF97F80490824698460C461546104605F0A4FF064650460268936A2046810007
:20624C0001EB40115B181C683978B9F1000F03F1080308EBC1189A4604D09168504606F090
:20626C0029FA58B326B3DFF858E0A5F1010C404600231CF8012F202A10D002EB82020119B7
:20628C00A53A052795B2491D0219754415F8018B7F1E02F8018BF9D10B7005E00119062739
:2062AC007F1E01F8013BFBD1761E00F10600E0D1B9F1000F02D0504606F0F8F9BDE8F087D4
:2062CC0038C7000000B5ADF11C0D24480068002837D023490878401C0870204A1F481F493B
:2062EC0000681268096840880979083202F012FF8DF814009DF81400162810D09DF81400AF
:20630C0004280CD015481749006809784088002203F08CFE9DF81400F9F78AFE11E01048F2
:20632C0000780090002001900020029000200390002004900C48006803A30521002203F0E2
:20634C0059FC07B000BDC0465273702073656E642072657472793A20256400C0640C0020DA
:20636C00680C002060260020600C002000B5ADF1140D009005F0F4FC029000200190019886
:20638C0003283DD20199880000EBC1001F490858E8B90199880000EBC1001C490918039198
:2063AC0000980399086003980021816000220021002006F05BF9039948600398406808B9A3
:2063CC0002F006FE029805F0F9FA03981CE00199880000EBC1000D4908580099884209D1E1
:2063EC00029805F0EBFA0198810001EBC0010748401809E00198401C019001980328C1D3E8
:20640C00029805F0DBFA002005B000BD24240020264838B550380468B4F1FF3F08BF0024F5
:20642C0005F01AFE22481749002510380560012008601549086002F095FE1448006820B13E
:20644C00134800682046FFF7F7FA124812490560124C0A686FF35B4244EA02000860104946
:20646C000868C0F30130012806D10A680D48104040F400320A6008600B4908680028FCD1B4
:20648C0038BDC0465C600C400822044380012843000120438C210840482003400000390152
:2064AC0004000940FFFFFCFC0C0068426C1300509404604200B5ADF1140D029201910090A4
:2064CC0006F030F9ADF8100021480068007810B91F4805F079F8019838B94FF480704FF4FD
:2064EC008071012204F0F2F81AE0019802F0C6FC70B1029818B102984FF0FF310170082031
:20650C00FFF796F8BDF8100006F008F900201DE001980199019A00684968926804F0D6F86F
:20652C0005F0B6FF05F0BAFF4008FBD3094800684168022088470390029810B102980021E5
:20654C000170BDF8100006F0E9F8039805B000BD78CC0000CC010010F0B520480127F84285
:20656C0001D002F0AFFF204D204F214EBD4206D203CD0478A4003459401CA047F6E71D487A
:20658C00002800D08047164D164FBD4202D210CDA047FAE7F0BD03251BE0416808300A1C19
:2065AC002A400BD11A1C2A40AB4305D0046804300C600431043BF9D1131C05D0047801302B
:2065CC000C700131013BF9D1021C2A4001D0A84304300368002BE0D17047C046FFFFFFFF83
:2065EC000000000000000000F0D1000070D2000090D1000059C5011000B5ADF14C0D06F05A
:20660C006DF80190002000900098002832D102A805F096FC00981A4951F820000890009840
:20662C00184951F820000A900098174951F8200006900098154951F820000790144800227F
:20664C0002A906F00FF81190119808B902F0C0FC05F086FB12901198FFF788FE08B902F0DD
:20666C00B7FC129805F0AAF90098401C009000980028CCD0019806F02DF813B000BDC046FF
:20668C0038CD00003CCD00004CCD00000C090020C5BA000000B5ADF11C0D8DF814002FE0EF
:2066AC0000200DF1150100F0E7FC9DF81500009000200190002002900020039000200490C3
:2066CC001A48006813A30421002203F093FA1EE002200DF1150100F0CFFC9DF8150000903E
:2066EC00002001900020029000200390002004900E4800680AA30421002203F07BFA06E0C4
:20670C009DF814000028CBD0801EE1D0FFE707B000BDC0464368617220313A20256400C0E0
:20672C004368617220333A20256400C0600C0020002A4AD05FEA000C8B071CD1830722D1B8
:20674C00102A08D370B4103A78C978C0103AFBD270BC103238D0042A2CD3082A05D30C2A37
