:20000000683F0020E951000001CA011001CA011001CA011001CA011001CA011001CA0110B7
:1C00200001CA011001CA011001CA011001CA011001CA011001CA01103FCA011082
:20003C00F0B52B4D05F12C0158C9ADF11C0D02AA58C20AC94FF0805682E80A0047688468BF
:20005C00D6F8D001C16820688847216821488A6B10408863206840F2F271416497F83C00B6
:20007C0097F83D10C0100DEB80008068084321684863684600F032F8D6F8D001397F46680C
:20009C0005EB8101BA698B68797F206855F821101943BB7F05EB8305AB690B430199B047BD
:2000BC000D490A1F106840F010001060086840F001000860A07D0027FF2802D0E07DFF28B3
:2000DC0000D11FB1086840F44040086007B0F0BDB86C00000DF8FFFF30100040DFF800F005
:0400FC00F9BF011037
:200100003C000000000000000000000034010000000000000000000001000000000000006D
:1C01200000000000000000000000000001000000000000000800000000000000BA
:20013C00340000000000000000000000680100000000000000000000010000000000000005
:14015C00010000000000000000000000080000000000000086
:2001700030000000000000000000000098010000040000000000000001000000FFFFFFFFA5
:10019000FF00000001000000080000000000000057
:2001A0002C0000000000000000000000C4010000040000000000000001000000FFFFFFFF4D
:0C01C000FFFFFFFF08000000000000002F
:2001CC0034050000E401000099A1011095A70110A5C2011009B2011045B80110000000000B
:0801EC00000000002F000000DC
:2001F400280000000000000000000000140200000000000000000000FFFFFFFF00000000B1
:080214000800000000000000DA
:20021C00300500003002000069C201106DC101101FC2011095BA011000000000000000008E
:04023C002D00000091
:20024000300500005402000075C20110A9B601109DBF011049B601100000000000000000DE
:040260002E0000006C
:200264002400000000000000000000008002000000000000000000000000000008000000CC
:040284000000000076
:20028800240000000000000000000000A40200000000000000000000000000000800000084
:0402A8000000000052
:2002AC00240000000000000000000000C8020000000000000100000000000000080000003B
:0402CC00000000002E
:2002D0000000000048110020040000000000000000000000200000007001000030000000D0
:2002F0001C020000501100200400000000000000000000000C0000003004000018000000F3
:20031000400200005811002004000000000000000000000024000000480400001800000076
:20033000000000006011002004000000000000000000000010000000A00100002C0000003B
:20035000CC0100006811002004000000000000000000000020000000640200002400000079
:20037000FFFFFFFF70110020040000000000000000000000280000008802000024000000F6
:20039000FFFFFFFF78110020040000000000000000000000580000003C01000034000000DB
:2003B000FFFFFFFF80110020040000000000000000000000100000006004000018000000F0
:2003D000FFFFFFFF881100200400000000000000000000001C000000AC0200002400000066
:2003F000FFFFFFFF9011002004000000000000000000000038000000F401000028000000D7
:20041000FFFFFFFF9811002004000000000000000000000054000000000100003C00000072
:1804300018000000000000000000000040040000080000000000000050
:1804480018000000000000000000000058040000080000000000000020
:18046000180000000000000000000000700400000800000000000000F0
:0804780001000000386E0000D5
:0404800004F0DEBBEB
:040484000100000073
:0404880000000E0062
:04048C0000000F005D
:040490003200000036
:040494000100000063
:04049800F010002040
:04049C00000200005A
:0404A0000000000058
:0404A40001CA011078
:0404A8000000000050
:0404AC00000000004C
:0404B0000800000040
:0404B4000000230021
:0404B800880F002089
:0404BC00010000003B
:0404C00008110020FF
:0404C400080000002C
:0404C8000000000030
:0404CC00000000002C
:0404D0000000000028
:0404D4000000000024
:0404D8000000000020
:0404DC00010000001B
:0404E00024100020C4
:0404E400060000000E
:0404E800010000000F
:0404EC00F00E0020EE
:0404F0000000000008
:0404F4000000000004
:0404F80000020000FE
:0404FC0000000000FC
:02050000704742
:020502002900CE
:020504000100F4
:020506002500CE
:020508002D00C4
:02050A002E00C1
:02050C002F00BE
:02050E000100EA
:0105100001E9
:0805140003000000146E00005A
:08051C000000000000000000D7
:0405240000000100D2
:0405280000000300CC
:04052C0087C401106F
:04053000380500008A
:040534003805000086
:0405380000000000BF
:04053C00900000002B
:040540009000000027
:0405440000000000B3
:040548000811002076
:04054C002367000021
:040550002000000087
:04055400D46D000062
:040558006C6D0000C6
:04055C000DC30110BA
:040560004F550000F3
:040564002F5600000E
:0405680099C801101D
:04056C009BC8011017
:040570000000000087
:04057400476D0000CF
:04057800886C00008B
:04057C00A06C00006F
:04058000706C00009B
:0205840008006D
:0205860009006A
:02058800010070
:02058A0000006F
:01058C00016D
:040590000000000067
:040594000000000063
:04059800000000005F
:04059C00000000005B
:0405A000BD69000031
:0405A4008955000075
:0405A800CD60000022
:0405AC0011590000E1
:0405B0007759000077
:0405B400195C0000CE
:0405B80011420000EC
:0405BC00376800009C
:0405C000854800006A
:0405C40011C8011049
:0405C80021C8011035
:0405CC000800000023
:0405D0002400000003
:0405D400180000000B
:0405D80028000000F7
:0405DC0020000000FB
:0405E0003C000000DB
:0405E4000C00000007
:0405E80034000000DB
:2005EC002DE9F04FCD4CCE4D002604F1140AADF11C0DAAF10408AAF10E0BE8694FF0FF314B
:20060C0006F054FA05F0E0FE2F89E9882E816B89EE80AA886E81114347EA010243EA0201A4
:20062C00A98005F0F9FFA888010A24BF20F08000A8800927ADF802700820ADF80000684600
:20064C0005F0DCF9DDF808900028CDF80C903BD128789DF80620696A904235D149B1AF789B
:20066C007F1E04D07F1E04D1484688472CE048468847484603F03EFE071C25D00C2005F0CF
:20068C0071FD5FEA00091CD005F09EFEC9F808703B7805905BB92869494606F003FAA88839
:2006AC0040F01000A880E86906F0F8F905E0484605F0C9FE384605F0C6FE059805F0ACFFEB
:2006CC0002E0384605F0BFFEAB88580930D3286906F0E0F9F8B906F0E7F8E0B905F074FE7F
:2006EC008146286906F0D6F990B9286906F0CEF9071C0DD0B8684068A861B96848684988C7
:20070C0003F01AFBB86805F09EFE384605F09BFE484605F081FF286906F0BCF920B9E8699F
:20072C0006F0BCF9AB8803E0AB8823F01003AB809808C0F03B8127E104A8012105F02CF86D
:20074C0020780A2800F22081DFE810F0EC0019011101AA0077000C010301FD0042001300CD
:20076C000B006089401E80B20028608100F0E4800AE16769A1789DF81000FA685054A078F5
:20078C00401CC3B2A37005F00DFDA1888146C91A494508DAF86889B21B18184604F0FCFF0C
:2007AC00A088C1B208E0F8684946181804F0F4FFA0784844C1B2A0888842A17040F0E480F6
:2007CC00E368002B00F0B880DAF80010103063E09DF81010A088A67040EA0120B0F5877F21
:2007EC00A08027DC103005F09DFC606100B303210170FF2747706178817021896FF31F31F0
:20080C0081802189C1F301318171A18809230181DAF80010A788237001F11002002FC26079
:20082C0040F0B280E368002B00F08680102034E02670AEE060810A2081E02769A178786881
:20084C0040189DF810100171A078401CC3B2A37005F0A8FCA1888146C91A494509DA786854
:20086C001B1889B21B1D184604F096FFA088C1B209E0786849461818001D04F08DFFA07807
:20088C004844C1B2A0888842A1707DD1E368002B52D0D8F800100C30C0B2324698474BE054
:2008AC009DF81000A6709DF81070A08007F10C0005F038FC206138B3D8F8001008314160E9
:2008CC0062780A709BF80010426851709BF8011042689170A7884168CF70FF234370E18806
:2008EC003F23B3EBA12F0AD1C1F3C2133BB1932101704168887800F00300887001E002210F
:20090C0001700420207000E0A788002F3CD1E36893B1D8F800100C20BFE7C046D410002010
:20092C000C0500209DF810009DF810706070781E07D0401E012801D9267025E005202070D2
:20094C0022E00120FBE7082727709DF81000A0801AE007279DF810102089277040EA012093
:20096C00208111E006219DF810002170F8E703279DF81010E088277040EA012003E002216E
:20098C0021709DF81000E08005F00CFC00287FF4D3AEAB8805F006FC002804BF23F002036F
:2009AC00AB8003D0E86906F079F8AB8818092BD3686906F06FF8D0B9686906F063F8071C27
:2009CC0015D0296A69B1687858B1401E02D0401E0AD103E0B86804F01FFD296AB868884792
:2009EC0002E0B86804F018FD384605F02CFD686906F050F820B9E86906F050F8AB8803E0B7
:200A0C00AB8823F00803AB80D808FFF4F6AD23F004032869AB8006F03DF800287FF4EDADA2
:200A2C00A88840F01000A880E86906F037F8E4E52DE9F84F8046DD480122A0F130010A603C
:200A4C00D7490F68002FFCD0D74ED64AC02706F1040B1760DBF80010890804D23168090C57
:200A6C0041F0F00100E07221E34AE44D4FF0000982F85412A5F1D407C0F80090D6F808A020
:200A8C003868C0F3046005F0ADFE5246534600EB2270401C162805DA10F10A0FB8BF6FF0DC
:200AAC00090000E01520E649E64F00F01F0040F4F8500880386880083ABFE348C0F8009001
:200ACC0042F04062E149A5F13C04D00E970E80F0010000F00100086087F0010000F0010080
:200AEC0088602068C0F38367C0F38F215FEA9A4022D243F3072000280BD54242484649089B
:200B0C0005D17F0806BF0127391C4FF6FF71521EF5D1002810DD4FF6FF72490041F00101F8
:200B2C008A4207D27F0047F001070F2F92BF01210F27111C401EF0D141EA0741182004F074
:200B4C00F7FD20682768C34CC0F3870140F2FF324B4607F0030041EA0021274688B22C2106
:200B6C000090A7F1400004F067FAA5F110073868C0F30D011C2004F0DBFDB54957F8080C35
:200B8C00014000F07C400143142004F0D1FD57F80C1C01F47C000904090C0143102004F0B0
:200BAC00C7FD57F8042CDBF80010C2F30350C2F30343490812D231680E0510EB267003D4B7
:200BCC001028A8BF0F2000E04846090413EB217303D4102BA8BF0F2300E04B4643EA0013D2
:200BEC0002F47F4002F0FF01B8F1220F40EA034041EA000124BF02F0804211430C2004F0C4
:200C0C0097FDB8F1220F32BF01202868C0F30070B8F1220F4FEA400040F0200084F809016C
:200C2C0026BF2868C0F3407001208B4EB8F1200F40F0100084F8090138BF494606D3316840
:200C4C00C80C00F44070C1F384510143282004F06FFDB8F1200F26BF3068C0F301504846B4
:200C6C00B8F1220F4FEA400040F0600084F80C0126BF2868C0F3C0604846B8F1220F4FEA13
:200C8C00C00040F0800084F8010126BF2868C0F345504846B8F1200F4FEA800040F47C408E
:200CAC00A4F89C0138BF6D490AD3306801038A15920501F47C1100F00F00114341EA003162
:200CCC00082004F035FD2E464FF480002060A6F1D000816D40F20F226FF31F418A4213D9D1
:200CEC0001680068C1F30367C0F3034007B17F1E072805D006280EBF0720801C00F00F00ED
:200D0C003D4947EA00100870CAF381477F1E02D07F1E28D023E03168880C20D24FF48040DA
:200D2C0020604F48D0F802204B0AC1F3033703F0800322F08F02134347EA0302C0F80220E4
:200D4C00D0F801300F0A67F30303C0F80130026801F0E70722F0E70247EA020102E04FF093
:200D6C00004120460160DBF80000C0F3C0070FB94020A0624FF400703E4F206428684FF055
:200D8C004008C0F3C14040F0300084F8C800CAF38150A8B3401E0BD0401E28D0022127E005
:200DAC009402224300600C40AC3F005040100940012005F099FA05460420294604F080F8B9
:200DCC00042005F091FA8542FAD12648056825F07F4004F05BFE3846143000680368072118
:200DEC004FF06022280E98474FF4806020600321042004F065F80AE0026008408C13005052
:200E0C000420012104F05CF8174804F03FFE203E30681649164B47F6180500F03F0084F8ED
:200E2C00CB0F3A460D8018681068C168022088471248114EC0F8008001213160BDE8F88FDD
:200E4C006E6208400000094094042A4300002043FCFCFC0040A00C409813005000803F40A3
:200E6C000A600840A83F0050BD37860070B00C402C200940A00100109404604200600C406B
:200E8C002DE9FE43BD4C0F460646F80B80F05081B80880F0CB806069B90F69D2A07A002878
:200EAC004AD138094AD3002501266570B448267205F0C2FCB3492A4604F14C0005F069FD3D
:200ECC00607901281FD1A079E8B9DFF8BC82266AD4F81490D8F8000070B105F0D3FBA0EB06
:200EEC0009004346000B8619E0611868B6EBC01F28BF256208D2266204F1C8004FF000514C
:200F0C0005F072FB31E0667140F60901218794F8451001F0F00141F0010184F845106587E0
:200F2C0094F8441001F0F00184F84410974EE56304F13800306018E0380914D2B80BC0F097
:200F4C00148104F1280005F02FFD061C08D0706830B17568F068B6F91C1000222023A8479B
:200F6C0027F4005701E10020A07227F00807FCE0D8B1042005F0B8F9B8B105F083FBA061AD
:200F8C006169814226BF401A401E401A000BF060F06840F6C41100F58D708142F06003D328
:200FAC0040F2EE22824200D9F1600025D6F818C06561BCF1000F10D094F8450010F00F0FD9
:200FCC000BD1708C40F60901814206D130466FF480712A464FF00073E0476D4904F14C0049
:200FEC002A4605F0D6FCA07950B10220ADF80000684604F06DFFA571BDF80800A4F8A000B0
:20100C00012060702079A846401C2071192084F8078005F0A5FB75692DB1414630464FF096
:20102C0080630A46A84727F000579EE004F13008404605F0B9FC061C71D0B06840F6030283
:20104C002025531C02E040686D1EEDB260B15DB101888A4218BF8B42F5D1F1682CC82031A0
:20106C002CC129C881E82900B2694FF00009C6F818907068C8B1F07F42F00202002300F022
:20108C000700401E09D0401E04D0801E08D14FF0805304E04FF0804301E04FF000534A4662
:2010AC007568F068B6F91C10A84705F0E7FC0546B4F93600401C6FF31F30E086206B1F30D2
:2010CC00017801F07F010170404605F029FA284605F0D0FCF068B0F99410B4F93620914261
:2010EC001DD1217801291AD090F8965095B9056885B1E1680968B1F1FF3F10D02549096891
:20110C007030B5FBF1F105F0B1FCF068703005F0A9FC04E080F89690484603F07FFB40465A
:20112C0005F042FC27F0020708B147F002071CE005F0A4FC014604F12C0005F035FC0646EC
:20114C00B569084605F096FCA8080CD25EB1B069A843B061706830B12A46F068B6F91C1082
:20116C0075680023A84727F4804727B104F1C800394605F039FABDE8FE83C046B809002049
:20118C003D380000616000003C1D00200010044005280000306E00002DE9F04F0120ADF161
:2011AC00340DADF812000827ADF8107004A804F025FC00259B4C069965609DF81400A160FC
:2011CC0010222070012104F067FD384604F09AFF061C09D00221112205F020FB04F0B2FFB6
:2011EC00914A314604F072F90C2004F08BFF061C0CD00521042205F06DFA04F10C00B060D1
:20120C0004F0A0FF894A314604F060F9032004F05FFB042004F05CFBE08A00EA5001C90842
:20122C000FD201090BD2C00806D26EA10E2204F1180002F017FA0DE06EA11122F7E772A1CB
:20124C00F4E775A10A6804F1180002604E6846600B89038104F11806304605F031FAC1B220
:20126C003246284605F004FAA21C0120022105F0FFF9DFF8BCB14FF0FF0A04260A20ADF815
:20128C000200ADF800704FF0FF350195684604F0B5FB0028F2D100200A90ADF81C700925CC
:2012AC00ADF81E5007A804F0A9FBDDF824800028BDF820209DF82210CDF82880DED1102A15
:2012CC0040F085802078884240F081804146087891287CD14A78BBF800000E3A65D0521ECB
:2012EC003AD02F3A07D0C13A71D18B8883426AD08A78504661E088780C2868D10C208DF852
:20130C002C00CD788DF82D508B888DF82E308A798DF8302018128DF82F00CD798DF8315056
:20132C00112004F0DFFE002851D0067080F801A00921418000F108054560067241683E22B8
:20134C004A70416806230BAD8B7041682B68C91C0B60AA888A8025E08D88854233D042F262
:20136C003200A84233D191F802900F2004F0BAFE68B3067080F801A00721418000F10803BC
:20138C004360067241680F224A7041688E70416881F80390416801230B7141684D714268DC
:2013AC002B12937103F0D6FE11E08B8883420AD031F8040C0C38C2B20E201D468B68294692
:2013CC0002F05CF803E04FF6FF70ABF80000ADF808700320ADF80A00CDF80C8002A804F0A3
:2013EC000DFB4BE7544920424C4520556E6B6E6F776E00C0544920424C4520506572697097
:20140C00686572616C00C046544920424C452043656E7472616C00C0544920424C45204184
:20142C006C6C00C0080200201B680000996900002C1100202DE9F04F0128ADF1140D40F08F
:20144C00F280DFF81492D9F8DC00012840F0E9800220C9F8DC0005F001FB0290012003F0CC
:20146C0033FE20B101210646C9F8DC10D5E005F0F1FA03906E484FF00008C0F800800120C5
:20148C0004F032FF012818BFCDF8008004D1404603F026FB0120009066486E4CC0F8008016
:2014AC001934D4F8FF0F112005F00AFA00280CBF46460126102005F003FA08B146F0020610
:2014CC000F2005F0FDF908B146F004060B2005F0F7F930B1584800685849006B0246088810
:2014EC0090470A2005F0ECF90028404618BF01204FF0805B0BF5DC7528B128685049006B87
:20150C000246088890474F480127076028688069014646F0200088474B48076005F0CAF953
:20152C0000F001010191400815D2484805F061F98246BAF1040FF8D0BAF1010F06D1DBF85A
:20154C00D801406802464148032190474049086820F003000860404600F080F82868D4F874
:20156C00FF1F806B8047019801280ED0BAF1010F06D1DBF8D80140680246344839469047EF
:20158C003349086840F0030008602A480760286840690146304688470B2005F091F928B197
:2015AC0028682649C06A0246088890470A2005F087F928B128682249C06A024608889047FB
:2015CC00204807600322C9F8DC201F4BC3F800802868406B0146304688470128F8D10420CC
:2015EC0003F072FD124807601A48D4F8FF1F01688909FCD30098012802D1384603F070FA37
:20160C0005F04CF9082003F05FFD06460398C9F8DC7005F01BFA03F0D3F8029805F012FAB6
:20162C0002E0042600E00126304605B0BDE8F08F0C40094000022243B8010010066C000005
:20164C00026C00002820086080010443004003402422084014100940FC0C00202DE9F84F95
:20166C00DFF8E8B10746ABF13500DFF8D4910068800880F0D68004F017FC06467748083094
:20168C00D0F8008000254FEA28725FEA985002F101020AD2C6F13E0016F10A0F4FEAE000CD
:2016AC00D8BF08208242B8BF021C624BD3F87C01C0F3046005F096F804461868C0F30440B6
:2016CC0005F090F812198246162A05DA12F10A0FB8BF6FF0090200E01522574B574802F028
:2016EC001F0141F4F8511980006810F0030F18BF0125C00828BF45F002050FB145F0040547
:20170C00494691F90700301A052804DA8879A84208BF888865D0DFF82CE10F2EA6F10F0C7E
:20172C0025DB0CEB0610A0F1F00C4FEA2C27072F88BF07273C46062C88BF06245EF824002D
:20174C00042303EB84037446E3581B1A03F0FF04E80824BFC3F307200444A80824BFC3F380
:20176C0007400444680828BF04EB136401E0002427465EF827E0E8080EF0FF0324BFCEF3AE
:20178C0007200344A80824BFCEF307400344680828BF03EB1E63A4B2ACEB0727BAEB020065
:2017AC0004FB07F404F1800403EB1423D8BF0120342208F0FF0742437A43B2FBF3F04FF662
:2017CC00FF72824238BF101C802E80B2888005DA16F1800FB8BF6FF07F0600E07F26CE7129
:2017EC008D71194A12681F280A604FF0000208D340F2FF11814206D24008521C8142FBD311
:20180C0001E01F208880124F0F38000942EAC00247EA0200CBF8FB0F0026CBF8FF6FBDE8F9
:20182C00F88F0D4F0B4E494608203760891D0870BDE8F88F3C1100506E6208402422084085
:20184C00401D00209C130050082009403500094000E7A48030100940FDFDA400AC3F0050A4
:20186C002DE9F0411C4615468C4208BF854282BF00230022E5E0002C08BF002D0AD100298D
:20188C000EBF00286FF000006FF0000100F0E1F8BDE8F0815FF000085FF0000E002C08BF02
:2018AC008D429CBF2C1C0025070C47EA01470E0CB44208BFBD429EBF5FEA044444EA1544AE
:2018CC005FEA0545070A47EA01670E0AB44208BFBD429EBF5FEA042444EA15645FEA052503
:2018EC00470847EAC1774E08B44208BFBD4200F29380870847EA81778E08B44208BFBD4203
:20190C007CD8C70847EA4177CE08B44208BFBD4266D8070947EA01770E09B44208BFBD4253
:20192C0050D8470947EAC1674E09B44208BFBD423AD8870947EA81678E09B44208BFBD42A9
:20194C0024D8C70947EA4167CE09B44208BFBD420DD8E60146EA5566EF01B14208BFB842E8
:20196C0001D3C01BB14158EB08085EEB0E0EA60146EA95664FEA8517B14208BFB84201D3D3
:20198C00C01BB14158EB08084EEB0E0E660146EAD5666F01B14208BFB84201D3C01BB1412F
:2019AC0058EB08084EEB0E0E260146EA15762F01B14208BFB84201D3C01BB14158EB0808B9
:2019CC005EEB0E0EE60046EA5576EF00B14208BFB84201D3C01BB14158EB08084EEB0E0EC9
:2019EC00A60046EA9576AF00B14208BFB84201D3C01BB14158EB08084EEB0E0E660046EAB8
:201A0C00D5766F00B14208BFB84201D3C01BB14158EB08085EEB0E0EA14208BFA84201D38B
:201A2C00401BA14158EB08085EEB0E0EA34208BFAA423EBF2D0A45EA0465240A89D37346FE
:201A4C0042461E4617460B46024631463846BDE8F08170472DE9F843814604F019FF002191
:201A6C0000B901216B4E30680028FCD06C4D01242D1DEF6A346009B104F010FFDFF8988178
:201A8C00C7F3072008F1BC01086004F001FF002100B9214630680028FCD02F68346009B195
:201AAC0004F0FCFEC7F38440C8F8C00004F0F0FE0146002001B92046014630680028FCD0F2
:201ACC00ED69346009B104F0E9FEC5F38120C8F8D000B9F5C061C8F8B81000F0968098F8A5
:201AEC00D80068B9C8F8D410D8F8C000C8F8C800D8F8BC70C8F8C470D8F8D060C8F8CC6049
:201B0C00D8F8D410D8F8BC60002954BF02206FF00100454605F1C8031A6801EB4101401807
:201B2C00411000EB917002EBA0021A60D5F8C810C5F8C46000291CDD1E293DDDD5F8CC00B1
:201B4C0030B93429B4BF15391E21C5F8C81025E02A29BABFD5F8C8000B381E20C5F8C80032
:201B6C00D5F8C4003F28B4BF401C3F20C5F8C4001FE0D5F8CC00032812D011F10B0FC6BF6C
:201B8C00D5F8C8000B30201CC5F8C800D5F8C4000028CCBF401E0020C5F8C400032009E059
:201BAC0011F1150FC6BFD5F8C8001530201CC5F8C8000020C5F8CC00B5F8C400174E302103
:201BCC004FF47F4208230090304603F035FA009404214FF400321123304603F02DFAB5F803
:201BEC00C80004214FF4F80212230090304603F023FAB5F8CC0020214FF440620A23009008
:201C0C00304603F019FABDE8F883002088F8D800BDE8F88300800C40FC0C002000A00C40A4
:201C2C0000A00C402DE9F04FADF1840D00F056FD03F0DEF90026012804D104F041FC02289C
:201C4C0008BF01265F490868C0F38150012806D151F80C0C0127010E07FA01F006435A4879
:201C6C00614F007807F12C00036803F0C1F903F07F03012804D104F023FC022808BF5B1C06
:201C8C00524D2B602C463BB1FF2104F140001F467F1E00F8011BFBD14D4800684FF0000934
:201CAC0000F0FF01FE291BD0DFF824C100F0FF0749460122FF2F0CD0BB427FD902FA07F759
:201CCC003E427BD100F0FF0047EA0909201880F840105CF8040F491C00F0FF07FE2FE9D151
:201CEC00092001F0E1F83A48002124220823606017A804F0A3FE4FF0010804F1240017AA9B
:201D0C008DF87480414604F095FE236843B3002794354FF0040BBA4608FA07F0064219D146
:201D2C0019EA000F04BF07F0FF0141F4C04105D0E019274990F8400051F82010254801F0B8
:201D4C00F1FAF8B24FF0FF3104F0DCFA2368C5F800A001E0C5F800B07F1C2D1D9F42DBD3FF
:201D6C0001A800213022082304F060FE0025FF20102101AB0990184A009504F1080004F01C
:201D8C0051FE0DA828220823294604F047FE04F160000DAA1395114914952B4604F03AFEC2
:201DAC000F4951F80D0C20F4F85040F4005041F80D0C4746C1F8FF7F0A4E376021B0BDE802
:201DCC00F08FC046B43F00504E1D00204C1B00208C6B0000007FC7672D630000A5510000F3
:201DEC000D30094008000940181300502DE9F843674C04F1240004F0D7FD15460E46009061
:201E0C0004F03CFE05F001078146B6F1FF3F0CD1A06A20B9B4F93600401C06B202E0A06A3C
:201E2C00B0F91C60002084F8A300304603F0D0FF0326002800F09B80A16ADFF84081814238
:201E4C0069D0009FB8422ED03FB100990A68904209D0096800290091F7D1832E41D04846BD
:201E6C0004F008FE3DE004F1A40004F0FFF900980168AA0802D20A6802600846002202608D
:201E8C000091009818B9484604F0F4FD28E0C17F41F00401C177684604F042FB0146404667
:201EAC0003F0E2FCEDE704F1A40004F0DFF9A8083ABF606A006800206062484604F0DAFDF6
:201ECC000099C87F40F00400C877684604F028FB0146404603F0C8FC009808B1A808EFD298
:201EEC008326E07988B9207A012843D0244804F0A3FC022104F1C80004F076FB6078012878
:201F0C0038D0204804F098FC34E004F1C800022104F06AFB2EE0A90803D3616A0091002659
:201F2C006662C27F0121B9401143C17704F092FD0446002F14BF1448144803F0C9FF484615
:201F4C0004F098FDA80801D3009820B9204604F07DFD83260EE0C17F41F00401C177684630
:201F6C0004F0DEFA0146404603F07EFCECE7484604F080FD3046BDE8F883C046E8090020D0
:201F8C008D0E00000D3100000100020401000104B80900202DE9F04304466668A7680D46AB
:201FAC00ADF1340D04F06AFD3178012903D104F061FD0020A3E04FF0010886F8008004F005
:201FCC0059FD287870706878B07068687060A868B060E868F06028693061287D3075687D6E
:201FEC007075A87DB075A869B061287F3077687F7077A87FB0774FF00009C6F82090C6F8A6
:20200C0030904D4675627563B562B56386F82C50102386F83C3086F82D5086F83D50786886
:20202C0000F042FF2046FEF703F8204601F0B4FB70B934480068C16838688847786800F092
:20204C00C9FE04F01BFD357004F014FD2C4655E001A829463022082304F0E8FC0694387B96
:20206C00CDF80090284A0990B96801AB06F1680004F0D8FC01A829462822082304F0CEFCB5
:20208C0005942249386901AA2B46079006F1840004F0C0FC01A829462422082304F0CEFC6A
:2020AC008DF81C80B07838B906F1B800294601AA04F0C0FC16483061707838B906F1D400CE
:2020CC00294601AA04F0B6FC1248F06001A829462422082304F09AFC0695ADF814500E497C
:2020EC00079406F1F0000A2201AB04F08BFC0B4A06F154000421234603F012FF20460DB0AA
:20210C00BDE8F083D0010010F92C00008D5000007969000071690000913A00007D6700004D
:20212C002DE9FC415E4C574D574EDFF860815A4F94F8E410481E0B2861D8DFE800F07B2C3C
:20214C0043062343062343067664042907D001220A2945F8212C14BF0220032004E0202157
:20216C00012045F8211C024684F8E200002045F8390C0827C5F8FF7FC5F8F37F45F8392C35
:20218C00BDE8FC81052914BF09200620002584F8E400356070E094F8E1700120383D002FB5
:2021AC00C5F81B0004BF0620002102D00021F160032084F8E400032045F8010C31603068D4
:2021CC00800859D294F8E400012503280DD00021404660220523009102F02EFF94F8E40031
:2021EC00062814BF0A200720D1E702200090002160220523404602F01FFF0420C7E704F0F0
:20220C00FDFBBDE8FC812249002622480E60012505600E2000F0DEFD022003F067FC84F8B7
:20222C00E45084F8E360BDE8FC81002038600C2578601FE019480068006801462020884736
:20224C002C3D41F61D560F2000214FF4C072072345F8010C4046C5F803600225009502F0D2
:20226C00EBFE404600214FF4C072072302F0FEFF0120386084F8E45004F1780004F0F2FB7D
:20228C00BDE8FC8139400C4038600C4000A00C402C500C4004800C4034600C40A001001052
:2022AC00FC0C00202DE9F84F994692468B46064604F0E4FB564C0090B4F93610B4F93400E0
:2022CC000AAF401A40F6F8710140082980F29080B4F9340004F59875401C6FF31F30A08632
:2022EC000820B4F93480EB7F33F07F0304D0401E05F12005F7D1002506F1700003F0B6FFF1
:20230C00C5F808B085F81EA0C5F80490A5F81C804048EE6097E80C00202100271940104005
:20232C0005F1100383E8030004F12400EF770368002B50D1294603F097FA002851D0A6F80A
:20234C009480E87F40F08000E87786F89670607A40B1607830B10120A0726772A771207922
:20236C00401C2071009804F085FBA06A00284BD1607860BBE079012846D004F07FFB0646C5
:20238C00207A00BBA86802F0C1FD244A2249E3681268086040B9304604F06CFB04F1C8008F
:2023AC00042104F021F92FE00968DB6804F1A400C91AB1FBF2F104F059FB04F1A40004F03B
:2023CC0051FB30461EE0164901200870F9E7192004F0C6F918E004F12400294603F044FABC
:2023EC0048B9B4F9340000F6FF706FF31F30A0866FF0010805E0A6F89480E87F40F080009D
:20240C00E877009804F036FB4046BDE8F88FC046B8090020F1EFFF9F3C1D0020306E000066
:20242C00381D00202DE9F043584CE2680746880FADF1140DC0F09A805068406808B1804797
:20244C00E26851684B4E886808B9CD687DB13568002DFCD00022326010B18047E0684168FD
:20246C00C86800B180474A48503803F031FD4FF00008C6F80080404846F81C0C3F4804F07F
:20248C00DBF9424640F60A01218704F13800BD686287037B03F0F00303738146C4F83C8097
:2024AC0094F845006A8000F0F00040F0010084F8450000E01D466B6813B118888142F9D17C
:2024CC00C5F80490687B00F0F000687304F1240004F06AFA80680088C91F81421ED0491C22
:2024EC0081421BD03B8CCBB197F82C0097F82D30C7F8248000F0F00087F82C0003F0F00067
:20250C0040F0010087F82D0007F12001E16399F80D007A8400F0F00089F80D0018480168A2
:20252C008468C368009110226946406B019420F0784040F0805003901248029301F092F801
:20254C0030680028FCD0C6F80080012003F0CCFE012808D0687B00F0F00040F001006873F7
:20256C00094804F069F9B86846F81C0C05B0BDE8F083C0461C10044001010E048D0E000030
:20258C004C13005018000021414B0000B809002051000706F8B5414C201D0368B3F1FF3FB8
:2025AC0008BF002302F024FD002876D13C4E20683468070F04F0FF04802C28BF002402F03F
:2025CC0017FD4FF0FF3578B1401E07D0401E012802D9801E13D014E08FB112E0381C5CD081
:2025EC00801E0ED114340BE03846401E55D0801E53D0001F51D0401E03D1163400E00A3483
:20260C0065B2162D49DB27482749002501270560264E0F60264C376020680028FCD1274AC5
:20262C00161D2449244F306820F0030001433868C0080CD2106810F0030F0AD041F00300AE
:20264C003060106800F003000328FAD101E041F001011B483160006820B11A480068184614
:20266C00FEF7E6F9184819490560194F0A686FF35B4247EA0200086016490868C0F301302C
:20268C00012806D10A681448104040F400320A60086020680028FCD1F8BDFEE71813005046
:2026AC00A0100050840460425C600C40082204430C00684204000020B03F005000400340CF
:2026CC0080012843000120438C210840482003400000390104000940FFFFFCFC2DE9F0413A
:2026EC00444C94F8E700ADF1280D00286FD1394F387B01250021242284F8E7507E6884F8B3
:20270C00E6000823C4F80C6101A804F07FF9002604F10C00069601ABADF814602E490796C2
:20272C00324604F06FF92D4904F1300001AB324604F068F92A4904F1540001AB324604F0D1
:20274C0061F9B868014628468847DFF89C8025487B7B0078D8F80410C1F381571BB1032F33
:20276C0003D184F8E150032F16D0022F14D0012F26D103201D4C009031464FF040521C23D5
:20278C00204602F059FC009531464FF400720923204602F051FC13E0022003F0BFF9032FFC
:2027AC000CBF4FF47A7142F21071114800685434B1FBF0F1204604F059F9204604F052F938
:2027CC00D8F80000C00802D2304603F0A7F90AB0BDE8F081E86D0000DF2D0000013A00000C
:2027EC00C93D00004E1D0020B03F005000A00C40306E0000FC0C0020F8B503F079FE3F4EA7
:20280C003D4F0446A00822D3B96A01B33D460020A8628A69086906F108032040104340F06C
:20282C00020088610A6918689043186001F1100090E80C0030681A1C9043306005F1300086
:20284C0003F012F8022105F1C80003F0CDFEB86AA10815D200F110020CCA002122400B4077
:20286C00002B08BF002A0BD0016985690C40F8622C434FF48041846107F1C80003F0B4FE9A
:20288C00B86A002837D107F12404204604F08CF8051C30D0F868E968884226D1A86802F047
:2028AC0035FB17490860E0B906F1080128690A6810430860326805F1100393E80300081C78
:2028CC001043306000233361A86846F80C0C06F1100000680028FAD0204603F021FEBD62F4
:2028EC00F8BD086801F09AFFF8BD07F1C8004FF4805103F079FEF8BDB80900200C10044034
:20290C003C1D00202DE9F0430746ADF11C0D04F071F803F0A3F84FF000090646CDF80C90F5
:20292C0003F0E6FF30F0010002D00398B04202D16FF0040066E078684C4658B1B0F1FF3F5D
:20294C0005D004A903F072F830B1804659E04FF0FF3000E02046049004F048F8049D4FF050
:20296C0001082D1802E00A463BE004937068049904F09CF800282DD0684602F087F8D8B947
:20298C009DF8040005A902F067FE88B9BB68BDF814009DF80610029A984748B1BDF8140078
:2029AC009DF80650B881029BBD73C8463B6111E0029903A803F09EF90498641CB0F1FF3FB4
:2029CC00D4D00028D2D004F011F82B1A02D004989842CAD2039F03F0F7FC06F1080547B1D3
:2029EC003A4652F80C1C0029BDD1296842F80C1C2F6003F011FE24B1706804F04FF8641E34
:202A0C00FAD1404607B0BDE8F083FEE72DE9F04707467D68D7F8089090460E4604F02EF87B
:202A2C008246A86A002864D105F1F00003F01EFC0024EC772E6250466C6204F01BF804F0EA
:202A4C001DF82F4E3378824623B9022003F066F801203070504604F00DF82A49086840F4AF
:202A6C00807008603846414602F0A4FDA862C0B93846414602F096FAA878D0B9A96805F1A0
:202A8C00B80004F013F8E8B9AC621020E8774946284600F09FFC03F0F1FF8246307840B367
:202AAC0023E0D9F80010886B40F020008863A87810B12046BDE8F087A96805F1B80003F0E3
:202ACC00F5FF10B1686ABDE8F0873846414602F069FA1020AC624946E877284600F07AFCED
:202AEC0003F0CCFF8246307818B1022002F0FEFF3470504603F0BEFF4FF0FF30BDE8F0874E
:202B0C004D1D0020301000402DE9F041364835490860FFF787F84FF08055D5F8D801334C46
:202B2C00036801210A4620469847D5F8D8014268012120469047022002F0F0FF032002F0A0
:202B4C00EDFF2E4C0025032004F1180141F80C5F401E8D60FAD1241F062004F14C010A46F8
:202B6C00401E22F80C5BFBD10820214F0880214A8F602149121D22F00303CF1A6762E3617D
:202B8C002362E66904F12008944618460A4601E026F8025BB142FBD8B910E82700EB810149
:202BAC0021F8045C4FF6FC761F8006EA0C0300F1E807D21A676106EA0201EC39A0F8E810FF
:202BCC00284601F077F8A061D8F80000606101F053FB02F08BFB02F0A7F803F003FF2846DE
:202BEC00BDE8F081A01100201D51000000400340916100004F1D0020683F0020100E00206E
:202C0C00F0B5ADF1340DFFF769FD304908682822082340F00200086001A8002103F0FEFE17
:202C2C002B4E2C490524002301AA079406F1C80003F0F0FE00213022082301A803F0F6FE3A
:202C4C000025FF271921244AADF81C5001AB099706F14C00009503F0E5FE2822082301A84C
:202C6C00294603F0DBFE1D49079406F1FC0001AA2B4603F0CFFE01A829463022082303F0B5
:202C8C00D5FE0124ADF81C40099706F168001A2101AB134A009503F0C5FE12492A4606F1DF
:202CAC00A400134603F0AEFE0F4803F0C5FD86F8A3507571F57135727572B5727561B471F3
:202CCC004FF6FF70A6F8A0000DB0F0BD00200940B8090020BD650000616000007D320000B0
:202CEC00954B0000A55F00000D3100002DE9F8430746D7F80880D8F800007D68066C16F480
:202D0C00F06F466425D1F00911D2700951D395F83C00AC6B401E844288BF041C38462146DF
:202D2C0002F0B6FBA86B001BA8630DD041E0A96B384602F0ADFB95F82D10A86311B90028BA
:202D4C0037D101E00020A86305F1840003F046FE2FE0F00A0ED3D8F800000021446841607A
:202D6C00A96B04F00F04202988BF2021384602F08FFB1AE04FF000094C4602E0A86B401E3A
:202D8C00A863A86B88B13846012102F081FBD8F80000446814F00F04C0F80490EED0286B92
:202DAC00401E2863686B401E6863EC77384601F07DFBB0090BD3A96A49B10E46384602F070
:202DCC00F9FBA86218B93846311D02F0EBF8BDE8F88370472DE9F843044603F04FFE8146FE
:202DEC002D48021992F8ED10491ECFB2002F82F8ED704BD12B4D05EB84052E78698836F0F8
:202E0C007F0788461AD1F10911D24FF08054D4F8B801806901464046884704F5DC7420689C
:202E2C00406B0146404688470228F8D121E000EB8800D0F80011002088471AE04FF0805403
:202E4C00D4F8B801006A014640468847D4F8B801806A014640468847D4F8B801006B014699
:202E6C004046884701210D4A0D48116001688908FCD306F03F003F2801D0FFF7ABFF6878FC
:202E8C0000F03F003F2801D0FFF7A4FF484603F0F1FDBDE8F883C046FC0C002028200860B9
:202EAC0028200840D86B00002DE9F041064603F0E5FD2D4D8046A91991F8ED00421C0028CD
:202ECC0081F8ED204AD1294C04EB8604277807F03F003F2801D0FFF7E7FF607800F03F0067
:202EEC003F2801D0FFF7E0FF668837F07F001AD1F80911D24FF08054D4F8B80140690146CE
:202F0C003046884704F5DC742068406B0146304688470128F8D121E005EB8605D5F800110C
:202F2C00012088471AE04FF08054D4F8B801C069014630468847D4F8B801406A0146304662
:202F4C008847D4F8B801C06A0146304688470121074A0848116001688908FCD3404603F0E5
:202F6C0089FDBDE8F081C046FC0C0020D86B000028200860282008402DE9F041304C0546EA
:202F8C00A0781F4616468846ADF1380D012803D0FFF736FE0120A070B8F1000F09D0C5F8F6
:202FAC00048036B1AE6003F069FDE17819B103F061FD00203CE0491CC9B2E17003F05AFD08
:202FCC0001243FB91C494CC909A84CC006C909AF80E80600386828607868E860387A2874FE
:202FEC00F8686861386900B1A8610021782205F1200000F025FF684600212422082303F029
:20300C001DFD8DF8184005F1380000216A4603F011FD684600212422082303F0F7FC074937
:20302C00069505F1700000226B4603F0EBFC28460EB0BDE8F081C046C06D00008D6900006B
:20304C00B8090020F8B503F023FC03F033FC044604F00C000C2845D0E0081ED202F0E4FE63
:20306C00234E376805460120014603F02DF931686943884211D21F4C8220B0FBF7F0291A94
:20308C00204603F0F3FC204603F0ECFC0120FEF7D1F9204603F0EAF825E0200922D2164800
:2030AC00610939BF016821F00101016841F0010102460160D2F898004FF0805440F0030039
:2030CC00C2F89800D4F8B8018069014620208847D4F8B801094C806B216880470120206018
:2030EC00206800E030BF03F0D9FB01F015FAF8BD306E0000080D00208C2108402C20094094
:20310C00042998B54BD1264C04F1240003F04CFC40B994F8A300400838BFE06804D3D4F8F5
:20312C00880000E0C068E06041681E4A09781160416812680978914207D087692FB16FF033
:20314C00FF0100224FF00073B847022002F0E6FC1120FFF7A9FE0120E071E168087C10B1CC
:20316C006079012803D00E20FFF79EFEE16849680D488F680FB9CF681FB10021C1610B4FFC
:20318C0007600B4A40F2FF7111600027876109494161094803F050FB192003F01BFC98BD2A
:2031AC00B8090020D021084000100440510007060000046002000040312400002DE9F041F5
:2031CC004568876814460E4603F058FCA96B29B103F050FC4FF0FF30BDE8F081AC632E6301
:2031EC000024EC776C6303F045FC03F047FC1E4E8046307820B9022002F090FC01203070EF
:20320C00404603F037FC1949086840F4007008603968886B40F4FA6088636878002818BF2C
:20322C00201C1ED1696805F1D40003F03FFCB8B9AC633968886B20F4FA60886303F01EFC14
:20324C000746307818B1022002F050FC3470384603F010FC1027696B286BEF77401A28633A
:20326C00686BBDE8F081C0464C1D002030100040F8B503F003FC2A4C0746D4F89C0010F47C
:20328C00602F2CD0D4F89C00400CC5B2680807D2A80803D2E80828BF022502E0012500E0B8
:2032AC0000256E1D70B201F099FCD4F89C3005F111010120884023EA00013846C4F89C102D
:2032CC0003F0D8FB04EB8500D0F88C7057B1D4F88800314600224FF00063B84702E03846EE
:2032EC0003F0C8FBD4F89C0020B104F1FC00002103F07AF994F8A300800810D3D4F89870ED
:20330C003FB1D4F888006FF0010100224FF00043B84794F8A30000F0FD0084F8A300F8BD69
:20332C00B8090020F8B50D46EEB2290824BF25494D40254AB300D15885EA01040440C4F337
:20334C00006C224C00EA050781433C4000F4E0272143B7F5E02F01D14C0E15D300F4E0242B
:20336C005CEA040710D001F4E027B7F5A02707D0B7F5803704BF21F4003141F4A02103E085
:20338C0021F4803141F4C021114CD150C10D04D3A4F18001C5F380528A55000E11D303F0BE
:2033AC006DFB290E03D201210022B14002E00121B1400A46503423688B431A43226003F064
:2033CC0059FBF8BD006000A000100840FF7F077F8020024070B50D4629680646886B20F042
:2033EC002000886323482C7D0168A14213D900EB8400F36CD0F894108B420CD103F03EFB5A
:20340C001D4BD0331A680121A1408A431143196003F030FB2C7DF06C2146012202F0F0F98E
:20342C00F06C297D002202F0A7FCF06CA97D002202F0A2FCB078012806D006F1B8004FF07E
:20344C00FF3103F033FB03E0296888690009FCD2F06C297D102202F08FFCA97D0020FF29B4
:20346C0002D0EA7DFF2A00D118B1F06C112202F083FC70BD4C1B0020002002402DE9F041E7
:20348C00164680460D461C4606F10B00B8F1FF0FC1B214BF032002204018C0B202F022FE29
:2034AC00071C3CD004213970FF20787007F108037B6039727868B8F1FF0F80F8018017D1FB
:2034CC007968B01C887020787968C870607879680871A078796848717868857179682B12B2
:2034EC00CB717868F21EE41C751D164608300DE07968F01C887078680123C370786805710F
:20350C0079682A124A717868B51D801D2146324600F0A8F8E8B27880384601F01BFEBDE84A
:20352C00F081FEE72DE9F04114460F4603F0A6FA1FFA80F81F480068007808B902F036FFE0
:20354C00E7B138684FF0FF3518B140280AD3810B08D17E681EB1310A04D0310E02D1B9684A
:20356C000F2908D93DB10CB1284620700820FFF731FC002418E07968BA6803E04FF48070FD
:20358C000122014602F09AFA0B49012008600B4908684008FCD30A48006841680220884723
:2035AC000CB1002121700446404603F063FA2046BDE8F081F86D0000A80250420880024089
:2035CC00CC010010F0B520480127F84201D001F0C3FC204D204F214EBD4206D203CD0478A4
:2035EC00A4003459401CA047F6E71D48002800D08047164D164FBD4202D210CDA047FAE70A
:20360C00F0BD03251BE0416808300A1C2A400BD11A1C2A40AB4305D0046804300C600431DD
:20362C00043BF9D1131C05D0047801300C700131013BF9D1021C2A4001D0A843043003682D
:20364C00002BE0D17047C046FFFFFFFF0000000000000000C8700000287100008470000004
:20366C0059C50110002A4AD05FEA000C8B071CD1830722D1102A08D370B4103A78C978C07E
:20368C00103AFBD270BC103238D0042A2CD3082A05D30C2A24BF08C908C008C908C008C93E
:2036AC0008C092072AD0920F22E00B780370491C401C521E22D08B07F7D1C30714D1830754
:2036CC00D8D0121F12D308C903801B0C4380001D121FF8D20AE008C903701B0A43701B0A9F
:2036EC0083701B0AC370001D121FF4D2121D05D00B780370491C401C521EF9D1604670470D
:20370C002DE9F843224D884606464FF0FF3105F12400814603F0CAF900200CE0FF2909D0B0
:20372C002A688A4204D905EB8101D1F894700FB1002627E0401CB8F1000F03D018F82010EF
:20374C00FE29EBD10024346074600127B46011E0FF280ED005EB80000B787268C0F8946043
:20376C0007FA03F0104370600A680A49304602F019FB641CB8F1000F04D008EB84010878E1
:20378C00FE28E5D1484603F089F93046BDE8F8834C1B0020007FC767B0B54568846823490A
:2037AC00607DA27DADF1180D40F000400090207D0027FF2A41EA000001904FF0020002D082
:2037CC00E27DFF2A00D13FB1E37DA07D1943039140F0004002900420FE214DF8201005F177
:2037EC0040006946FFF78CFFE864002808BF381C1AD0617D0F2202F0BFFAE86C217D1022F6
:20380C0002F0BAFAA17D3846FF2902D0E27DFF2A00D140B1E86C112202F0AEFAE86CE17D43
:20382C00122202F0A9FA012006B0B0BD0000C0A0F8B50546880F3CD31E4E30681E4F20F0F0
:20384C00020040F400703060032147F8041C41F23004BC60012139605022BA6039604FF4FD
:20386C00CA63BB603960154847F80C1C02F0E4FF134FB81C0078012803D005F1380003F0F7
:20388C000DF900240220346002F030F91120FFF7A1FA287C10B90E20FFF79CFA3846094A67
:2038AC0004721178447221B11470C830042102F09BFEF8BD000004600C4104400D31000061
:2038CC00B8090020381D00202DE9F8432020EFF3118780F31188214CA068012103F076F877
:2038EC004FF001094FF0000865692168A4F81C906A1A2168A4F81E80461B401A904227D3BF
:20390C0087F3118840464519361A4846294603F059F8B042F7D92021EFF3118781F3118889
:20392C00E18B012903D14046294603F04BF8B0F1FF3F06D0A169801B814238BF081C411954
:20394C0001E0A069291803F039F8A4F820902560A4F81C8087F31188BDE8F8837801002037
:20396C00B0B50446A768ADF1280D5FBB0C2000F0A1F9071C1DD0684600212422082303F097
:20398C0045F8002306976A466168ADF810301848059303F00FF8386070B90820ADF824001C
:2039AC000C25ADF8265009A802F028F8384602F08BF96FF0030018E0E06878602069B860DD
:2039CC00A7600AE002F000FD0546386802F04EFC2069B860284602F01FFE3868616803F05A
:2039EC0045F8386803F03EF800200AB0B0BDC046516800002DE9984303F040F81F4CDFF851
:203A0C007880814604F1E000007850B94446A0680146022088470746102001F055FB2FB31B
:203A2C0020E000F09FFE002820460FD1144909683222B2FBF1F101B9012100F13004204667
:203A4C0003F014F8204603F00DF80FE044460022A16880F8E020022088470746102001F082
:203A6C0033FB1FB1A068014603208847484603F001F8BDE89883C046E86D0000FC0C00203E
:203A8C00306E00002DE9F04107467868BE680446F03002F0EBFB30681B4980690968C0F397
:203AAC00C00008BB02F0EAFF184D8046287820B1022002F01BF800202870404602F0DAFFD0
:203ACC003168134D886B20F020008863286820F480702860606A216A091A21622369626A64
:203AEC0038469847BDE8F0814FF4FA70B0FBF1F1012998BF0121F034204602F0B7FF2046D2
:203B0C0002F0B0FFBDE8F081306E00004D1D00203010004070B51E481C4DE86000F5877012
:203B2C0028611C48ADF1280DA860684602F010FD4FF4E130069003208DF81C0000248DF8AD
:203B4C0015408DF816408DF81D4001208DF800008DF801001048039010488DF8174069464D
:203B6C000490204601F0F2FF016822464B6868602021984702F028FC064668682C8002F021
:203B8C008BFD304602F048FD0AB070BDC00F00209C070020E95300006D430000D16100002D
:203BAC002DE9F04106467568B46802F067FFA96A39B921688969090903D202F05BFFBDE8BD
:203BCC00F0810027AF6202F055FFA17D3846FF2902D0E17DFF2900D118B128462146FFF769
:203BEC00F9FB2168886B20F0200088630D49086820F48070086002F041FF0B4C8046207815
:203C0C0018B1022001F072FF2770404602F032FF686A296A091A29622B696A6A304698473B
:203C2C00BDE8F081301000404D1D002070B51E4DAC68064602F038FC4FF47A71001B48436E
:203C4C00030C02F031F92969401A48BF404240F6B8319B19994210D306280EDAE9688C42F2
:203C6C000BD8286848B1114A091B51438A0C02EB1141884288BF011C08E00D494868400880
:203C8C000ED208687D2100F0FF004143C82905D3B1F57A6F88BF4FF47A6103E0C82101E04D
:203CAC004FF4FA61084670BD241D002040420F00AC3F0050F8B5001D84B214F0030002D0D9
:203CCC00241A241DA4B202F07FFB1A4A102C014657691161C8BF9769388800221646C30BEB
:203CEC00DD0319D126B984420ADD3A46012617E01388C3189BB29C42138011DC17461846E8
:203D0C009FB1001B80B20428B4BF3C88385344F400443C803F1D08E080F40040002680B284
:203D2C00C71938880028DAD10027084602F074FC3846F8BD0C0E0020F8B50D46074602F081
:203D4C0043FB064602F0B0FD68BBB5F5877FDCBF0021081C05DDA5F5877007F587714FF4D1
:203D6C008775134C61612A463946E08004F59370FFF778FC01200F49A580A7680870781CAC
:203D8C00A06002F021FB0C4C07462A4621696068658002F0DEFDB0F1FF3F04BF002060804E
:203DAC00384602F039FC304602F036FCF8BDC04684070020B7110020C00F00201CB5042086
:203DCC0002F092FA022818D0032816D016480068C0F38150032814BF41F288324FF47A72D2
:203DEC001248144C016854342046B2FBF1F102F03DFE204602F036FE1CBD03200C4C00907A
:203E0C0000214FF040521C23204601F015F9012000214FF4007209230090204601F00CF9F1
:203E2C00022001F063FE1CBDB43F0050306E000000A00C40FC0C0020002213460A4619460A
:203E4C0071B510F0030F0BD0002A82BF00F8011BB2F1010210F0030FF6D1002A08BF71BD26
:203E6C0011F0FF0141EA0121042A18D341EA0141082A0FD30E46102A08D30C460D46B2F19D
:203E8C000F0312F00F0272C0103BFCD812F0080F18BF42C012F0040F18BF40F8041B12F069
:203EAC00020F18BF20F8021B12F0010F18BF017071BD7047F8B50E46044602F0CBFD05464A
:203ECC00304601F085FF071C03D1284602F0BEFD26E0F87F10F0070F1BD113487968884254
:203EEC0002D079682166786002214FF0E04204F1580080E80600284602F0A8FD04F1380033
:203F0C004FF0FF3102F0D2FD04F1680797E80300F8BD284602F09AFDF87F10F0070FFBD17A
:203F2C0002200021F8BDC046DD4D000038B5054601201A4C68712879B0B902F045FA2178E1
:203F4C00002904BF6FF00704051C15D0491EC9B2217039B902F060FB606801F06FFE002001
:203F6C00687118E0054613E002F02EFA05462078FF2805D16FF00604284602F04DFB0BE030
:203F8C00401CC0B20128207002D1606801F06DFE284602F041FB0024204638BD401100200B
:203FAC0070B50646B079F4680628A4F10C042CDA3079062829DA02F007FA154DB27991003B
:203FCC000C3501EBC20169184968E1B102F024FB30792071B0796071307AA071B17988006F
:203FEC0000EBC1002818F1684068083001F082FEB179880000EBC1002D186868406802F012
:20400C004DFD002070BD02F007FB6FF0020070BD4C0E002070B5064602F0C4F8194D69888B
:20402C00C0F5877080B2B04228DDB4B20819B0F5877F0DDDC1F587706B18C1F5877284B26E
:20404C0091B2181D01F0C2FB361BB4B20021698068182146001D01F0B9FB6888084E4FF43B
:20406C0087722418A0B290FBF2F15143401A02216880F069718102F011FD70BDFEE7C046E3
:20408C000C050020E80B002038B519491A4C00204822C1F8F30F94F8E200C1F8FF2F20B3AE
:2040AC00012817D0022807D003281ED151F8310C00F06EF80B2016E051F8315C2846FDF794
:2040CC00C9FC40F2FF50A84202D8801CA842F1D2082008E051F8310C00F0E6FA0548007856
:2040EC000028E7D0052084F8E400FEF719F838BD39400C40F66D0000FC0C002038B544686C
:20410C008568E06C02F0D1F8296817488A6B1040886316480068C168286888476868FEF76C
:20412C0059FE04F1680000F023F804F1840000F023F8A07818B904F1B80000F021F86078B9
:20414C0018B904F1D40000F01BF804F1F00000F01BF802F093FC0021217002F08BFC04F12D
:20416C00540002F04FF838BD0DF8FFFFD0010010DFF800F061C20110DFF800F0E9C201104F
:20418C00DFF800F0E1C20110DFF800F0B9C2011038B51A4CA0F5C060D4F8B810C4F8D40019
:2041AC000029B8BF49420028B8BF4042814220DAB4F8BC00124D30214FF47F420823009013
:2041CC00284600F039FFB4F8C00004214FF4F80212230090284600F02FFFB4F8D000202161
:2041EC004FF440620A230090284600F025FF012000E0002084F8D80038BDC046FC0C0020F7
:20420C0000A00C402DE9F8438146EFF31188202080F31188174D154C134F012605F11C0067
:20422C000660A4F114000660F86A016A14208847D9F81000810C14BF000C0420206038689C
:20424C0002682321002090470948066054F8180C20F4C02040F4803044F8180C2E6088F345
:20426C001188BDE8F883C04684010010182009408002244300002443B0B5ADF1400D02F0CB
:20428C00EDFB044600213C220823684600F02AF81148416806918168006804900F48006839
:2042AC00002205900E480891694600F01FF8071C0DD002F089F80546384600F0B1FD30B1DB
:2042CC00284602F0A9F9204602F0BCFB01E000F0B1FC10B0B0BDC046C06A0000100E0020A8
:2042EC005D670000DFF800F0D9C10110DFF800F019AE0110F0B5194C0646082504F118004D
:20430C000660ADF1140DADF8085003950420ADF80A0002A801F072FB00280CBF049F00273F
:20432C007FB100203870A069408801F0FBFE7860A26950887880786818B151685288FFF7D9
:20434C0091F9ADF800500320ADF802000196684601F054FB384605B0F0BDC046D410002099
:20436C002DE9F041174602F02FF8174C8046002F08BF00251AD02188E668002504F114031E
:20438C002846B1F5877F09DA1A5C72541D544A1C401C91B2C0B287422180F2D8A268B842B8
:2043AC0005D042B161884FF487709047A26812B1B8B2294690472580606802F06DF9404667
:2043CC0002F02AF9BDE8F081C00F002038B5144D00242046AC800146AC6100F02DF82861C1
:2043EC002046014600F028F8686101F01BF928781022214601F050FC0B480A49086001F0B1
:20440C00E3FF0B4904460948C1600A490161FFF781FB204602F000F9FCF7E2F838BDC0465E
:20442C000C050020E0100020E1480000840700201960000021400000DFF800F021B90110CF
:20444C0030B5401E4FF00004ADF12C0D0AD0401E04D0401E20D1FDF763FE1DE000F092FACA
:20446C00044619E001A821462422082302F0CEFA06940D4DADF8144009490794012201AB09
:20448C0005F1780002F0BEFA064A23462C2105F19C00009302F0C6FA20460BB030BDC04607
:2044AC005546000095400000FC0C00202DE9F04106467568B46802F0E1FAA96B21B30027F0
:2044CC00AF6302F0D7FA2168886B20F4FA6088630F49086820F40070086002F0CFFA0D4C5E
:2044EC008046207818B1022001F000FB2770404602F0C0FA686B296BEB68091A29636A6B74
:20450C0030469847BDE8F08102F0B4FABDE8F081301000404C1D0020164880B507683FB371
:20452C0015498B6803EA5300C00E21D2134A106880081DD2486880081AD21068096810F0C4
:20454C00050F4FEA114101F0F00101F5E0710AD1B9420DD2190F38BF40F00100D90E38BFA4
:20456C0040F0040003E0B94202D920F00500106080BDC04628500940AC3F00500000094035
:20458C00F8B5844640F6FF741CF8013B002210E0481B401E10F8015B7F1E01F8015BF9D1AC
:2045AC0003E01CF8010B01F8010B521C5B08082AEADA5808F5D21CF8010B1CF8015B05F074
:2045CC000F07FF1CC5F30315122F45EA001508D11CF8016B300A24BF1CF8010B60F3DF166B
:2045EC00F719AC42D4D1F8BDD0B5044602F002FA00F016FC071C08BF6FF002041FD001F069
:20460C00E3FE0146A2880F480023243030F80C6F5EB902804760A2688260237378682061A8
:20462C000024084601F0F8FF09E0964208BF6FF00204F6D05B1C062BE8D300F0FBFA2046B3
:20464C00D0BDC046280E00201648144A144908B5E4300078801E0A2807D8DFE800F0181471
:20466C00100614100614100609C002F0C7F911E010688008FCD250688008FCD20AE0086822
:20468C008008FCD306E008688008FCD202E010688008FCD3FDF744FD08BDC04634600C407A
:2046AC0038600C40FC0C0020134910B50A684BF2F5214843040AC2F38140012806D101F0FC
:2046CC00F3FB00F06DFE604304EB90540C4901F1E500007830B90948006820F07F402418BE
:2046EC00640802E0002081F8E50006480460210C41600123836010BDB43F005010200940D2
:20470C00FC0C00203C600C40B0B5044602F0F0F830F0010008BF6FF004041ED002F06AF962
:20472C00054601F051FE01460D480622403030F80C7F6FB1A388BB4208D1406800680022A8
:20474C00854208BF0122A260002403E0521EEED14FF0FF34084601F05FFF2046B0BDC0467C
:20476C000C0E002008B5012001F0BEFD01281DD00F4834210122002300F078FD002808BF0D
:20478C00002014D00B48006801F0DEFB01F08CFE0A4A93681168D060C01A074BA1EB9101C7
:2047AC004343180C884228BF011C1160012008BD00A00C408000001040420F00241D0020B0
:2047CC0098B5154B1B1D18680004070C21D001F06BFB104991F90720824205DD10F1800FC9
:2047EC00B8BF6FF07F00C8718C88BC4210D80A68D3F8D40F801A801C1F2888BF1F203F1BA8
:20480C004008C7404FF6FF70E719B84238BF071C8F8098BD401D002030100940F8B5074611
:20482C0002F02CF9124C06462079E0B1401EC0B22071C0B904F1C800082101F0D5FE97B1B5
:20484C00E068703001F012FDE0680A4DC0683F1A286804F1A405B7FBF0F1284602F006F924
:20486C00284602F0FFF8304602F004F9F8BDC046B8090020306E00001549096821280ADC38
:20488C00212819D00C380FD00D380FD0001F0FD0C01E0FD01AE0253810D0001F10D0401E44
:2048AC0010D0401E10D011E0086870474868704788687047C8687047086970474869704731
:2048CC0088697047C8697047086A704700207047F0010020F8B5054616460C460C2001F068
:2048EC0041FC0746082001F03DFCDFB1D0B144604580B86076B900210B4C017060693946DE
:20490C0002F0D0F8A08840F00800A080E06902F0C5F8F8BD01F097FD384601F094FD2046B9
:20492C0001F0A9FDF8BDC0460C05002038B50C4620B141680122A240114201D1022038BDEE
:20494C00914341600D480025231800EB8401C1F8945003F140010978FF291ABF406850F86D
:20496C00211044F020410648FEF7DCFC20464FF0FF3101F0C7FC284638BDC0464C1B0020D1
:20498C00007FC76738B5134D95F8E100002410B91148007860B102F071F895F8E3100029D0
:2049AC0006BF012185F8E310012402F063F80CB1002038BD022001F0B1F80E20FEF774FA03
:2049CC0001F036FB01280EBF0120002085F8E20038BDC046FC0C0020F66D000010B502F0D6
:2049EC004DF8124C611C097829B10F490C6802F041F8204610BD02F03DF801F043FE0C4A57
:204A0C00002301F0C9FDA26C002314001B184FF07A024FF0905044EB0104C11842EB04021E
:204A2C001046001C10BDC04604300440B809002000093D000246F8B5084611464C682038E0
:204A4C001CD0401E17D0401E18BF6FF0010019D18D6802F013F80C4E07463068016928686F
:204A6C008847B0F1FF3FF8D100253846A56302F001F82846F8BD0021084601E00121002068
:204A8C0084F82D10F8BDC046D0010010D0B5044601F0B0FF00F0E2FF061C08BF6FF0040029
:204AAC001DD001F091FCB168002908BF002709D051F80C2C0023B2600F4641F80C3CFF26C5
:204ACC0001F8026C01F0A8FDA7603FB117F8080C207117F8070CA0710020D0BD0220D0BD93
:204AEC00012838B51ED1012001F0FEFB01281BD001F0F2FC0D4D0E480122322305F1E001A8
:204B0C0000680A70B3FBF0F404B914463035284601F0ACFB2846214601F0A8FF284601F0C7
:204B2C00A1FF01E000F01EFE002038BDFC0C0020306E0000084610B500F0005100F00400B9
:204B4C00084317D0012001F0CFFB0E4C01280CD0094909686C3432222046B2FBF1F101F03F
:204B6C0085FF204601F07EFF10BD044801F064FE0348046010BDC046306E00008D0E0000AA
:204B8C0000100440F009002038B51248104C0168114D0C40E1430160A10908D340688009AB
:204BAC0005D328464FF40051C83001F01DFD14F4602F0BD0284600F19C010A6804F46024B0
:204BCC00FC3014430C60002101F00EFD38BDC04620000E0008100440B809002098B50446C0
:204BEC0001F04CFF8446104890F8A310C90803D390F8A210A14213D0B0F8A0300B4F012274
:204C0C0002FA04F11943A0F8A010391D0B6804F10C07BA4093430B600F680FB90021017016
:204C2C00604601F027FF98BDB80900200810044000BF704708B5FFF7FBFFFEE738B50D4CCB
:204C4C000546A06820B10C48B0F1FF3F00D080470A4800688047606810B1014628468847CC
:204C6C00206800B18047064800688047FFF7E2FF38BDC04620110020FFFFFFFF3811002023
:204C8C003C110020DCB5044601F0B4FE00F0E6FE064601F02DFE30F0010014BF002E6FF060
:204CAC00040017D0606858B1B0F1FF3F05D0694600F0BCFE30B107460BE04FF0FF3000E0B8
:204CCC00002000907068009901F0F0FE002700B901273846DCBD7047F8B5044601F08AFE82
:204CEC0000F09EF8071C19D001F06EFB84460D480021243030F80C6F6EB94FF6F87202802D
:204D0C0047600025856021717868A060604601F083FC2846F8BD491C0629EBD3FFF78AFF5A
:204D2C00F8BDC046280E002030B5114C1020DD214FF4007204F17805ADF13C0DE06028462A
:204D4C00FFF77EF800213C2208236846FFF7CAFA4FF400700023074908906A46079502209D
:204D6C00069004F1280000F007F80FB030BDC0460C050020B1690000DFF800F025B10110DA
:204D8C00F8B516460C4601F079FE02460F484178832554B1641E02D0641E10D00DE08179A2
:204DAC00012904D0B0F8A01005E0876A0FB9802506E0806A818B318002E0032500E0317036
:204DCC00104601F057FE2846F8BDC046B80900202DE998430446276E9946904607B1B847E5
:204DEC000020022100EA090001EA0801002808BF00290BD104F1580090E8060008EA0101CA
:204E0C0009EA0200002808BF002907D004F1680080E8000304F1380001F040FEBDE89883BE
:204E2C002DE9F843804601F0CFFA0F4C03250026814654F80C7F5FB93046C4F8008001463D
:204E4C00A6600A4600F012F8606018B9FFF7F2FE474501D1264601E06D1EEAD1484601F00F
:204E6C00DBFB3046BDE8F883280E0020DFF800F0ADB50110B0B5054601F0BCFD044601F095
:204E8C0037FD30F0010008BF6FF0040414D001F09BFA0A4A002132F80C7F4FB153681B68B1
:204EAC009C4204BF2971002404D0491C0629F2D36FF0040401F0B0FB2046B0BD4C0E00200A
:204ECC007CB5114D04460E46600807D3B0B20021009001220B46284600F0AEF8A00807D34A
:204EEC00B0B20090002102220123284600F0A4F8E00807D3B0B2009000210C2202232846BB
:204F0C0000F09AF87CBDC04600A00C4038B50546287B00F00F00022818D10D4C20780128D1
:204F2C0014D0FFF75BFDA9686FF070458908A1EB900085420ADDB0F1704FBCBF054908443E
:204F4C00E168C96801F57A71814200DB002038BDB8090020F6FFFF1FF8B506460F4D104F8F
:204F6C007388002417E0A00000EBC400321851689068D26852B9AF420BD00A7855F82220A3
:204F8C000346491C08461946904701E0FEF76AFB7388641CA4B2A342E5DCF8BD8470000078
:204FAC009070000070B540680C460546F03001F05DF90D482A7F0168687F8018AA69C01D3E
:204FCC0080B24443094805F1F0066043B0FBF2F008186330B0FBF1F1491C304601F046FD50
:204FEC00304601F03FFD70BD306E000040420F00104A1068C0F30F314BF69A10884207D154
:20500C0011680B20B0EB117F14BF0020042070472430884208BF01200BD04BF6413088428A
:20502C0008BF032005D0213888420CBF02204FF0FF30704718130050B0B500EB4100102B29
:20504C0004AF00F5007403D3103B00F50174120C3D889D4045EA024501F01AFC002700B980
:20506C000127064A394610680028FCD025600120106009B101F012FCB0BDC04600800C40B3
:20508C002DE9F04106467568B76801F0F7FC0D4C8046207820B1022000F028FD0020207022
:2050AC00404601F0E7FC3968886B20F4FA608863686B296BEB68091A29636A6B304698470A
:2050CC00BDE8F0814C1D002070B5104C0646204601F03AFC0025B0B9204601F05FFC044641
:2050EC00A06806420AD0E068226900210346304698470546012D08BF012005D0204601F05B
:20510C004FFC041CECD1284670BDC046FC0C00200F4A01465068ADF1080D08B900205060F6
:20512C000846801E12D0801E10D0401E07D001208DF801009DF801000028FBD106E00120AA
:20514C008DF800009DF800000028FBD102B0704708020020F8B5FFF7CDF807460C2001F0D0
:20516C0001F8064601F030F905467FB176B1B760387858B9074C2069314601F093FCA0884F
:20518C0040F01000A080E06901F088FC284601F043FAF8BD0C0500202DE9F04101F0B8FB78
:2051AC000D4D2B688046A3B105F194070024012606FA04F018EA000F07D057F8240020B1E0
:2051CC00026812B1214690472B68641CE4B29C42EED3BDE8F081C0464C1B00200C4885464E
:2051EC000C4885446F4607208743BD460A486F4607600A48002803D07946491D8E460047E2
:20520C00FEF7E0F901F0BCF900F00AF8FEE7C046683F002000040000A411002029690000FF
:20522C00DFF800F0D1C70110D0B504463C20FEF741FD071C14D000213C220823FFF752F8A3
:20524C00207AB86160893862E0683861606839460022FFF74BF80646384600F035FD16B9CE
:20526C006FF00300D0BD0020D0BDFEE7F8B51E4609181446102E02D3103E891C240C0D468C
:20528C0001F006FB002700B9012707483B460768002FFCD02D88012101600BB101F0FEFAF1
:2052AC002C403441A0B2F8BD00800C400E4938B5CA68824210D1487801280DD101F0DEFB82
:2052CC000546084800F004FE0446284601F0D2FB04F0FF00012802D06FF07F0038BD4FFAB5
:2052EC00A4F038BD01000304B809002000B500213C220823ADF13C0D6846FEF7F3FF084805
:20530C0000F1800107914FF42171089101210691044900236A463030FFF72EFD0FB000BD33
:20532C0008020020A511000070B50446606810F07F4F18BF6FF0020011D101F045F8084DDF
:20534C000646287828B1686800F078FC606800F08CFC60686860304601F05EF9002070BD6D
:20536C00401100203EB50546FFF790FB041C15D1287902A900F070F968B10821ADF800104F
:20538C00A86801900321ADF80210684600F036FB6FF005003EBDBDF80800A88020463EBD11
:2053AC000D4938B5091DD1F8EC3209681B3800FB00F409060A1643F3072100FB01F5190641
:2053CC006043091661434243891201EBE50101EBA24000EB234038BDA0100050B0B50C4C9B
:2053EC00002520800F46658010B1216901B1884747B1E2680748E188057022B121B9114663
:20540C0038468847E18811B16069FEF795FCB0BD84070020B71100201FB508230446ADF8CB
:20542C0000300B48ADF8023001788DF804108289ADF806206068039000218DF80810684657
:20544C0000F0DCFA204600F0FEFF00901FBDC0460C05002038B5044601F010FB05460B48B3
:20546C00401C007868B1204600F032FD0446284601F000FB04F0FF04012C0CBF8120022058
:20548C0038BD284601F0F6FA012038BDB8090020F8B50D4E446885680F4608E0216B0870E3
:2054AC00206B636B7F1E401C2063581C606347B106F10C000068016928688847B0F1FF3FC9
:2054CC00ECD13846F8BDC046C40100101CB51446CA78012A02D18A880A4B1A8000F036FC67
:2054EC0030B9002000906946204600F07FF818B100F04EFF044603E00098447800F0AFFF66
:20550C0020461CBD2C1100202DE9F0410646984614460D46102000F0F5FD071C0ED041462B
:20552C00062201F07BF93E817D81FC6000F00AFE069A3946FFF7CAFFBDE8F0810420BDE804
:20554C00F081FEE710B504460B4802680023D90750080143D007801A99414FF47A720023E1
:20556C00FCF77EF9002908BFB0F1004F28BF6FF000406060002010BD306E00002DE9B043FB
:20558C000F46044601F014FA04F1280292E800034B464246FCF764F905460B462A464046CA
:2055AC00494600F0F9FF17B1303484E803002846BDE8B083F8B5446885680F1C11D00A4EDD
:2055CC003068216A826909782868904748B1206A636A7F1E00F10100206203F101006062B1
:2055EC00EED13846F8BDC046D00100103EB5054608200C46ADF800002020ADF80200102052
:20560C00ADF80400684600F0F9F928B90298002818BF6FF0040003D12846214600F01AFCB9
:20562C003EBD704700B50820ADF1140DADF800003821ADF804100020ADF802000290684652
:20564C0000F0DCF903489DF80C1001700499C16105B000BD0C050020062880B50CDA0A4F08
:20566C00820002EBC00207F10C00875A83181FB14FF6F870B84202D14FF0FF3080BD1888D8
:20568C000880002080BDC0464C0E002010B5044600212C220823ADF1300D684601F02EF94F
:2056AC00E0200890A168606800236A4600F008F8002818BF002001D1FFF7BCFA0CB010BD8C
:2056CC00DFF800F079AB011010B5044600212C220823ADF1300D684601F010F9E068A16845
:2056EC000890606800236A46FFF7EAFF002818BF002001D1FFF79EFA0CB010BD10B5044675
:20570C0000F062FE094B0022014633F80C0F30B1A04208BFD4B203D0521C062AF5D3FF24BE
:20572C00084600F079FF204610BDC0464C0E0020B0B50A4C0D46241801F0AAF8002700B937
:20574C000127074A394610680028FCD025600120106009B101F0A2F8B0BDC04600A00C401F
:20576C0000800C4008B503200021FFF7A9FB012000F0BAFD18B10648006800F0E5FB00F0AF
:20578C0093FE044B083B586000F08EFB186108BD800000102C1D002084460B4838B50288DE
:2057AC0081B1051D4FF48774AB5C521C491E0CF8013B92B292FBF4F303FB04F3A2EB0302F0
:2057CC00F2D1028038BDC046E80B002070B503460C4600F007FDA04202DA00F003FD0446BE
:2057EC00064D6988184622460E4649191831FDF739FFA419A0B2688070BDC0468407002093
:20580C0080B51746094A13688B4205D902EB8102D2F89420904201D0022080BD002007B1A9
:20582C000120034A5054002080BDC0464C1B00200020024038B501F021F905460948E0305A
:20584C00007838B106480024342101222346FFF70DFD00B10124284601F00CF9204638BDF3
:20586C0000A00C40FC0C0020F8B5064637680D4600242C601FB901F001F9374608E001F054
:20588C00FDF800E03F6839680029FBD1BD4201D03D60012401F0EEF82046F8BDF0B5044677
:2058AC0005AFADF10C0D03B9084B97E860008DE86000FCF7F7FC011C44BF00204FF0004108
:2058CC0002D42046FEF7F6FA03B0F0BDDD4D000038B505460C2000F015FC041C0DD0294640
:2058EC00002200F09BFF4FF0FF30A06000F02AFC034A2146FFF7EAFD38BD042038BDC046C7
:20590C00095E0000094910B500200A4C08600120C86114342060216844F8280C0448006860
:20592C00016A14208847206810BDC04600002443B0010010182009401078802811D15088FF
:20594C0040F27F6181420CD190883F21B1EBA02F07D1C0F3C211052903D100F07F00834212
:20596C0001D0002070470120704770B5044604F128020CCA0846002100F00EFE04F13002A5
:20598C0092E860002D1846EB0106290C3004014300F03CF9383484E8600070BD10B5401E4A
:2059AC0014460DD0401E09D0801E05D0001F01D0FFF740F9052004E0002002E0042000E0CC
:2059CC000220226821469047002010BD10B50446A168606808601420FEF76CF938B10549D7
:2059EC00A368054A096800F09BFA002010BD6FF0030010BD2C6E0000A959000010B5044684
:205A0C002088FFF77BFEFF2808BF4FF0FF300AD0054B810001EBC000195811B12046884748
:205A2C0010BD6FF0010010BD600E00200A4A10B512680C464FF47A710023A1FB0001FBF70D
:205A4C000FFF002908BFB0F1004F2EBF6FF002002060002010BDC046306E000038B50546B5
:205A6C0000F0B2FC084C03220146243C54F80C0F18B1A84202D0521EF8D10024084600F0D5
:205A8C00CBFD204638BDC0464C0E00200949020480B5120C41F8082CC0F3074041F8040CFC
:205AAC000120086004480768002FFCD00020086080BDC04644600C4084088C4310B50A4C6A
:205ACC002368C1F30F2102F00F02C0F38710090440EA022023F4806323601B041B0C0B4394
:205AEC0023600143616010BD1480024010B5044600F0C4FF084BE21892F8E810491EC9B2FC
:205B0C0082F8E81021B99A680121A1408A439A6000F0B0FF10BDC046FC0C002038B5044690
:205B2C0000F0ACFF084A02F108031D680121A14012192943196092F8E810491C82F8E8107D
:205B4C0000F098FF38BDC046FC0C0020084A10B51268824298BF002009D901B90549064C87
:205B6C00830003EBC003E058C268E018904710BD3C0F0020486D0000906D000010B500F015
:205B8C0069FF00F06BFF032000F010F806481030006830B1034C204600F08CFD204600F0C1
:205BAC0086FD10BDB9660000A4010020DFF800F045C0011008B500F0B7FE012801D0FDF778
:205BCC00B0FC074800F00EF800F056FA00F00EF800F010F800F012F800F014F808BDC046D9
:205BEC00895B0000DFF800F081C60110DFF800F095B70110DFF800F08DC20110DFF800F084
:205C0C003DC20110DFF800F009C3011010B50C4600F04AFC211AB1F1004F08D8011B091D29
:205C2C00C90F05D1001DA04288BF041C00E0041D0148046010BDC0461820094038B504460B
:205C4C0001250DE0C0F11F0005FA00F1052881EA040403DB401FFDF7BDF801E0FFF746FFC3
:205C6C00B4FA84F02028EDD138BD38B5044601250DE0C0F11F0005FA00F1052881EA040451
:205C8C0003DB401FFDF710F901E0FFF747FFB4FA84F02028EDD138BDF8B5074615460E46DB
:205CAC000A2000F02FFA041C0CD031462A4600F0B5FD384600F097F9207200F043FA2146EC
:205CCC0000F044F8F8BD000010B5044600F07CFB074934F8042C6FF3DF3224F8042C4A6943
:205CEC000861241F944238BF4C6100F095FC10BD0C0E002038B50C46054600F065FB0021EF
:205D0C0044F80C1C296811B92C6006E0114651F80C2C002AFAD141F80C4C00F07DFC38BD8A
:205D2C0010B5044660680C3080B2FDF7C3FF50B1A18800230181FF22036000F10C01827217
:205D4C001846A16010BD6FF0030010BD00B5ADF1140D8DF8040003910822ADF80020ADF8B7
:205D6C0002201020ADF8060002208DF808006846FFF744FE05B000BD094B10B51C688C42A8
:205D8C0005D903EB8103D3F89430984201D0022010BD0846114600F0B5FA002010BDC04647
:205DAC004C1B002038B5094B1C6802F0FF05AC420BD902F0FF0403EB8403D3F894309842F0
:205DCC0003D108461146FDF7ADFA38BD4C1B0020094902460823F831C87F30F07F0005D07E
:205DEC00B1F91C00824208BF081C04D05B1E01F12001F1D100207047F009002010788028E0
:205E0C0010D1508840F27F6181420BD19088032818BF042806D1917931F0100014BF1129A7
:205E2C00012000D00020704738B52020EFF3118580F31188064CA068002100F0C7FD6169E4
:205E4C00081AA169814238BF002085F3118838BD7801002010B50C46ADF1180D02900821FC
:205E6C00ADF8001019216846ADF802104FF0FF310191FFF7C3FD0499216006B010BD80B535
:205E8C00107802AF80280DD1508840F27F61814208D19088834205D138789179884208BFB3
:205EAC00012000D0002080BD0748816841F31002064991F900100068A0F5407041430811D7
:205ECC00121A803210127047285009400C130050084910B50246A1F11C0318680028FCD14B
:205EEC0000240C601A60D8690028FCD00C60586810BDC0461C10044038B500F0BFFD074CFC
:205F0C00054694F8E000012804D1FEF72BFC002084F8E000284600F0ADFD38BDFC0C002003
:205F2C0010B5044610460A46211C14BF0028022006D0C8608A6003480B6100F041F800205E
:205F4C0010BDC046FC0C002070B5054600F0A0FC002400B90124054E30680028FCD0A8476E
:205F6C00012030600CB100F099FC70BD00800C4008B500F083FD064A117880B229B90549C1
:205F8C00096800230B700123137000F073FD08BDB6110020F86D000010B5084C06492069DD
:205FAC00814202D100F06EFB606104F1C800042100F01AFB10BDC0460D310000B80900204C
:205FCC0038B50D46044600F0E7FC00212A462346116059685160596801B921460A605A6075
:205FEC0000F048FD38BD0EB58DF806005021ADF8001068460021ADF80210FFF7FFFC002858
:20600C0014BFFF209DF807000EBD000010B5074CA06920B1A06900F02EFA0020A0610420C3
:20602C00E080E06900F03AFD10BDC0460C05002006490868002818BF012005D1044B40201C
:20604C00012218600020CA617047C04604800C402C500C4008B500F04BFA00F0804100F066
:20606C000200084305D003484FF00051C83000F0BBFA08BDB8090020074808B51030006820
:20608C0028B1034800F016FB024800F010FB08BD31620000D5650000A4010020074810B51F
:2060AC001030006830B1044C204600F003FB204600F0FDFA10BDC046BF3E0000A4010020C5
:2060CC00074908B5283090E80C000020FBF7C8FB002908BFB0F1FF3F88BF4FF0FF3008BDAD
:2060EC00907E00000EB501900821ADF8001068460221ADF80210FFF781FC002814BF00203E
:20610C0002980EBD0EB501900821ADF8001068460221ADF80210FFF771FC002814BF0020D6
:20612C0002980EBD0EB501900821ADF8001068460221ADF80210FFF761FC002814BF0020C6
:20614C0002980EBD0EB50820ADF800001A20ADF802006846FFF752FC002814BFFF209DF8BC
:20616C0004000EBD0EB501900821ADF8001068460421ADF80210FFF741FC002814BF00203A
:20618C0002980EBD08B542882D2A28BF6FF0010004D203490C3151F82210884708BDC046F5
:2061AC00CC6A00000648018840884FF48772401A00F5877090FBF2F15143401A80B2704737
:2061CC00E80B002010B500F0FFF804460448826812B1418800209047204600F01DFA10BDB7
:2061EC00C00F00200648418800884FF48772401A00F5877090FBF2F15143401A80B270473E
:20620C008407002038B5054600F038FC04460448294600F0F3F8204600F02CFC38BDC04612
:20622C00FC0C002010B5064C206900F00BF80146A06800B9E160A068401CA06010BDC04617
:20624C00A4010020DFF800F049C20110054808B54168054801220838026048698969884753
:20626C0008BDC046E40100200C200940002181820449C0684969814203D10348006800F048
:20628C00F1BB704778010020346E000010B50446E088FFF733FAFF2808BF4FF0FF3003D08B
:2062AC00A0712046FDF77CFE10BD10B5044607E090FAA0F0B0FA80F0C1B22046FEF736FBF7
:2062CC0060680028F4D110BD02294FF0000204D0012808BF4FF47A7203E0012808BF40F2CC
:2062EC00EE22104670470000042807BF4FF0C0421D234FF080521C2301483421FEF7B6BFAA
:20630C0000A00C40002948BF0021044A02EB8000026861F3050202607047C046001008403D
:20632C000348016803480160034800F05DB9C046E0200240E0200260AC1B0020054A0C3282
:20634C001268824218BF032002D10846FFF782B87047C046B8090020054A0C32126882423F
:20636C0018BF032002D10846FFF774B87047C046B809002010B500F081FB84B200F016F8D1
:20638C00204600F077FB014810BDC046F86D000050B110F1040F08BF042006D010F1030FBF
:2063AC000CBF0220012070470020704705490A68107828B90120107048680068FCF774BD2F
:2063CC007047C046F86D000010B500F047FB80B260F30F0400F052FB80B260F31F44204675
:2063EC0010BD1CB5044660686946FFF71FFB20B9009860602046FDF7B3FA1CBD0A681AB9CC
:20640C004A6842600A6801E04B685360496801B901460A60704708B5406810F07F4F18BF86
:20642C006FF0020002D1FFF709FC002008BD08B5406810F07F4F18BF6FF0020002D1FFF708
:20644C0014FC002008BD0EB501900821ADF8001068460521ADF80210FFF7D0FA0EBD0EB530
:20646C0001900821ADF8001068460321ADF80210FFF7C4FA0EBD0EB501900821ADF8001067
:20648C0068460321ADF80210FFF7B8FA0EBD10B50446A088FDF70EFC0028A06014BF0020A4
:2064AC006FF0030010BD000004480168436802688A42FAD1080440EA13407047082009408F
:2064CC00044884380068C0F302400428C8BF4FF0FF3070471813005008B503200121FEF701
:2064EC00EFFCFFF7E1FF0149086008BD2C1D0020044908310868C3430B600A681042FBD1F8
:20650C007047C04608100440044908B591F8E60018B1D1F80C0100B1804708BDFC0C0020D9
:20652C0038B5054600F0AAFA2C680CB12168296000F0A0FA204638BD4068002101700248B7
:20654C0001700248017070474C1D00204D1D0020044910B51CC91CC01CC91CC00EC980E866
:20656C000E0010BD486D0000012814BF002140F2FF71024A002011607047C04600000460C2
:20658C000449B1F1FF3F07BF0020011C0868091DFCF7BABAFFFFFFFF30B502FB01F403FBF1
:2065AC0000444FF00005E2FB00542146284630BD38B5044CE56800F0ABF9226901462846F6
:2065CC00904738BDB809002004498868401E886003D10869C96800F003B87047A4010020E2
:2065EC00DFF800F04DC201102022EFF3118382F31188426A1143416283F3118800F0EEB999
:20660C00034804490068814201D0FEF72EBE704798CA01107047282008B50090BDF80200CC
:20662C0000F028FABDF8000000F00CFA08BD08B5406820B10068FFF719FE002008BD6FF0DD
:20664C00020008BDADF1080D01208DF800009DF800000028FBD102B0704710B50446FFF717
:20666C001DFD0320FFF7A2FA2046FEF7D9FD10BD08B5034B00930323FEF746FF08BDC04678
:20668C0093690000034A1168506813688B42FAD17047C0460820094008B501680B6902494E
:2066AC002022984708BDC046D40F002070470349086070470149091F086070473C110020BF
:2066CC004FF0FF31421E12F8010F491C0028FAD108467047812342EAC112037042F47C425E
:2066EC0082800023C370704708B500F007F80248006800F073F908BD84010020DFF800F094
:20670C0067BE011008B50846FFF762FB002814BF8068002008BD00B50921ADF1240D6846B5
:20672C0000F002F809B000BDDFF800F00DC3011010B504466068FDF779FAA060002010BD1A
:20674C0002490968416000207047C046306E00000246024808B5904708BDC046CC6A00002E
